{
  "_format": "hh-sol-artifact-1",
  "contractName": "PharmaNFT",
  "sourceName": "contracts/PharmaNFT.sol",
  "abi": [
    {
      "inputs": [],
      "stateMutability": "nonpayable",
      "type": "constructor"
    },
    {
      "inputs": [],
      "name": "ECDSAInvalidSignature",
      "type": "error"
    },
    {
      "inputs": [
        {
          "internalType": "uint256",
          "name": "length",
          "type": "uint256"
        }
      ],
      "name": "ECDSAInvalidSignatureLength",
      "type": "error"
    },
    {
      "inputs": [
        {
          "internalType": "bytes32",
          "name": "s",
          "type": "bytes32"
        }
      ],
      "name": "ECDSAInvalidSignatureS",
      "type": "error"
    },
    {
      "inputs": [
        {
          "internalType": "address",
          "name": "sender",
          "type": "address"
        },
        {
          "internalType": "uint256",
          "name": "tokenId",
          "type": "uint256"
        },
        {
          "internalType": "address",
          "name": "owner",
          "type": "address"
        }
      ],
      "name": "ERC721IncorrectOwner",
      "type": "error"
    },
    {
      "inputs": [
        {
          "internalType": "address",
          "name": "operator",
          "type": "address"
        },
        {
          "internalType": "uint256",
          "name": "tokenId",
          "type": "uint256"
        }
      ],
      "name": "ERC721InsufficientApproval",
      "type": "error"
    },
    {
      "inputs": [
        {
          "internalType": "address",
          "name": "approver",
          "type": "address"
        }
      ],
      "name": "ERC721InvalidApprover",
      "type": "error"
    },
    {
      "inputs": [
        {
          "internalType": "address",
          "name": "operator",
          "type": "address"
        }
      ],
      "name": "ERC721InvalidOperator",
      "type": "error"
    },
    {
      "inputs": [
        {
          "internalType": "address",
          "name": "owner",
          "type": "address"
        }
      ],
      "name": "ERC721InvalidOwner",
      "type": "error"
    },
    {
      "inputs": [
        {
          "internalType": "address",
          "name": "receiver",
          "type": "address"
        }
      ],
      "name": "ERC721InvalidReceiver",
      "type": "error"
    },
    {
      "inputs": [
        {
          "internalType": "address",
          "name": "sender",
          "type": "address"
        }
      ],
      "name": "ERC721InvalidSender",
      "type": "error"
    },
    {
      "inputs": [
        {
          "internalType": "uint256",
          "name": "tokenId",
          "type": "uint256"
        }
      ],
      "name": "ERC721NonexistentToken",
      "type": "error"
    },
    {
      "inputs": [
        {
          "internalType": "address",
          "name": "owner",
          "type": "address"
        }
      ],
      "name": "OwnableInvalidOwner",
      "type": "error"
    },
    {
      "inputs": [
        {
          "internalType": "address",
          "name": "account",
          "type": "address"
        }
      ],
      "name": "OwnableUnauthorizedAccount",
      "type": "error"
    },
    {
      "anonymous": false,
      "inputs": [
        {
          "indexed": true,
          "internalType": "address",
          "name": "owner",
          "type": "address"
        },
        {
          "indexed": true,
          "internalType": "address",
          "name": "approved",
          "type": "address"
        },
        {
          "indexed": true,
          "internalType": "uint256",
          "name": "tokenId",
          "type": "uint256"
        }
      ],
      "name": "Approval",
      "type": "event"
    },
    {
      "anonymous": false,
      "inputs": [
        {
          "indexed": true,
          "internalType": "address",
          "name": "owner",
          "type": "address"
        },
        {
          "indexed": true,
          "internalType": "address",
          "name": "operator",
          "type": "address"
        },
        {
          "indexed": false,
          "internalType": "bool",
          "name": "approved",
          "type": "bool"
        }
      ],
      "name": "ApprovalForAll",
      "type": "event"
    },
    {
      "anonymous": false,
      "inputs": [
        {
          "indexed": false,
          "internalType": "uint256",
          "name": "_fromTokenId",
          "type": "uint256"
        },
        {
          "indexed": false,
          "internalType": "uint256",
          "name": "_toTokenId",
          "type": "uint256"
        }
      ],
      "name": "BatchMetadataUpdate",
      "type": "event"
    },
    {
      "anonymous": false,
      "inputs": [
        {
          "indexed": true,
          "internalType": "uint256",
          "name": "tokenId",
          "type": "uint256"
        },
        {
          "indexed": true,
          "internalType": "address",
          "name": "owner",
          "type": "address"
        },
        {
          "indexed": false,
          "internalType": "string",
          "name": "batchID",
          "type": "string"
        }
      ],
      "name": "BatchMinted",
      "type": "event"
    },
    {
      "anonymous": false,
      "inputs": [
        {
          "indexed": true,
          "internalType": "uint256",
          "name": "tokenId",
          "type": "uint256"
        },
        {
          "indexed": true,
          "internalType": "enum PharmaNFT.Role",
          "name": "byRole",
          "type": "uint8"
        },
        {
          "indexed": true,
          "internalType": "address",
          "name": "scanner",
          "type": "address"
        },
        {
          "indexed": false,
          "internalType": "uint256",
          "name": "timestamp",
          "type": "uint256"
        }
      ],
      "name": "BatchScanned",
      "type": "event"
    },
    {
      "anonymous": false,
      "inputs": [
        {
          "indexed": true,
          "internalType": "uint256",
          "name": "tokenId",
          "type": "uint256"
        },
        {
          "indexed": true,
          "internalType": "address",
          "name": "verifier",
          "type": "address"
        },
        {
          "indexed": false,
          "internalType": "bool",
          "name": "valid",
          "type": "bool"
        }
      ],
      "name": "BatchVerified",
      "type": "event"
    },
    {
      "anonymous": false,
      "inputs": [
        {
          "indexed": true,
          "internalType": "uint256",
          "name": "parentId",
          "type": "uint256"
        },
        {
          "indexed": true,
          "internalType": "uint256",
          "name": "childId",
          "type": "uint256"
        }
      ],
      "name": "ChildBatchLinked",
      "type": "event"
    },
    {
      "anonymous": false,
      "inputs": [
        {
          "indexed": true,
          "internalType": "uint256",
          "name": "childId",
          "type": "uint256"
        },
        {
          "indexed": true,
          "internalType": "address",
          "name": "scanner",
          "type": "address"
        },
        {
          "indexed": false,
          "internalType": "uint256",
          "name": "timestamp",
          "type": "uint256"
        }
      ],
      "name": "ChildScanned",
      "type": "event"
    },
    {
      "anonymous": false,
      "inputs": [
        {
          "indexed": true,
          "internalType": "address",
          "name": "manufacturer",
          "type": "address"
        }
      ],
      "name": "ManufacturerRegistered",
      "type": "event"
    },
    {
      "anonymous": false,
      "inputs": [
        {
          "indexed": false,
          "internalType": "uint256",
          "name": "_tokenId",
          "type": "uint256"
        }
      ],
      "name": "MetadataUpdate",
      "type": "event"
    },
    {
      "anonymous": false,
      "inputs": [
        {
          "indexed": true,
          "internalType": "address",
          "name": "previousOwner",
          "type": "address"
        },
        {
          "indexed": true,
          "internalType": "address",
          "name": "newOwner",
          "type": "address"
        }
      ],
      "name": "OwnershipTransferred",
      "type": "event"
    },
    {
      "anonymous": false,
      "inputs": [
        {
          "indexed": true,
          "internalType": "uint256",
          "name": "tokenId",
          "type": "uint256"
        },
        {
          "indexed": true,
          "internalType": "address",
          "name": "from",
          "type": "address"
        },
        {
          "indexed": true,
          "internalType": "address",
          "name": "to",
          "type": "address"
        },
        {
          "indexed": false,
          "internalType": "enum PharmaNFT.Role",
          "name": "newRole",
          "type": "uint8"
        }
      ],
      "name": "OwnershipTransferred",
      "type": "event"
    },
    {
      "anonymous": false,
      "inputs": [
        {
          "indexed": true,
          "internalType": "address",
          "name": "user",
          "type": "address"
        },
        {
          "indexed": false,
          "internalType": "enum PharmaNFT.Role",
          "name": "role",
          "type": "uint8"
        },
        {
          "indexed": false,
          "internalType": "bytes",
          "name": "pubKey",
          "type": "bytes"
        }
      ],
      "name": "StakeholderRegistered",
      "type": "event"
    },
    {
      "anonymous": false,
      "inputs": [
        {
          "indexed": true,
          "internalType": "address",
          "name": "from",
          "type": "address"
        },
        {
          "indexed": true,
          "internalType": "address",
          "name": "to",
          "type": "address"
        },
        {
          "indexed": true,
          "internalType": "uint256",
          "name": "tokenId",
          "type": "uint256"
        }
      ],
      "name": "Transfer",
      "type": "event"
    },
    {
      "inputs": [
        {
          "internalType": "address",
          "name": "to",
          "type": "address"
        },
        {
          "internalType": "uint256",
          "name": "tokenId",
          "type": "uint256"
        }
      ],
      "name": "approve",
      "outputs": [],
      "stateMutability": "nonpayable",
      "type": "function"
    },
    {
      "inputs": [
        {
          "internalType": "address",
          "name": "owner",
          "type": "address"
        }
      ],
      "name": "balanceOf",
      "outputs": [
        {
          "internalType": "uint256",
          "name": "",
          "type": "uint256"
        }
      ],
      "stateMutability": "view",
      "type": "function"
    },
    {
      "inputs": [
        {
          "internalType": "uint256",
          "name": "",
          "type": "uint256"
        }
      ],
      "name": "batches",
      "outputs": [
        {
          "internalType": "uint256",
          "name": "tokenId",
          "type": "uint256"
        },
        {
          "internalType": "address",
          "name": "currentOwner",
          "type": "address"
        },
        {
          "internalType": "enum PharmaNFT.Role",
          "name": "currentRole",
          "type": "uint8"
        },
        {
          "internalType": "string",
          "name": "batchID",
          "type": "string"
        },
        {
          "internalType": "string",
          "name": "metadataHash",
          "type": "string"
        },
        {
          "internalType": "string",
          "name": "metadataURI",
          "type": "string"
        },
        {
          "internalType": "string",
          "name": "qrCodeURI",
          "type": "string"
        },
        {
          "internalType": "uint256",
          "name": "timestamp",
          "type": "uint256"
        },
        {
          "internalType": "address",
          "name": "manufacturer",
          "type": "address"
        }
      ],
      "stateMutability": "view",
      "type": "function"
    },
    {
      "inputs": [
        {
          "internalType": "uint256",
          "name": "",
          "type": "uint256"
        },
        {
          "internalType": "uint256",
          "name": "",
          "type": "uint256"
        }
      ],
      "name": "childBatches",
      "outputs": [
        {
          "internalType": "uint256",
          "name": "",
          "type": "uint256"
        }
      ],
      "stateMutability": "view",
      "type": "function"
    },
    {
      "inputs": [
        {
          "internalType": "uint256",
          "name": "",
          "type": "uint256"
        }
      ],
      "name": "childScanTimestamp",
      "outputs": [
        {
          "internalType": "uint256",
          "name": "",
          "type": "uint256"
        }
      ],
      "stateMutability": "view",
      "type": "function"
    },
    {
      "inputs": [
        {
          "internalType": "uint256",
          "name": "tokenId",
          "type": "uint256"
        }
      ],
      "name": "getApproved",
      "outputs": [
        {
          "internalType": "address",
          "name": "",
          "type": "address"
        }
      ],
      "stateMutability": "view",
      "type": "function"
    },
    {
      "inputs": [
        {
          "internalType": "uint256",
          "name": "tokenId",
          "type": "uint256"
        }
      ],
      "name": "getBatchDetails",
      "outputs": [
        {
          "components": [
            {
              "internalType": "uint256",
              "name": "tokenId",
              "type": "uint256"
            },
            {
              "internalType": "address",
              "name": "currentOwner",
              "type": "address"
            },
            {
              "internalType": "enum PharmaNFT.Role",
              "name": "currentRole",
              "type": "uint8"
            },
            {
              "internalType": "string",
              "name": "batchID",
              "type": "string"
            },
            {
              "internalType": "string",
              "name": "metadataHash",
              "type": "string"
            },
            {
              "internalType": "string",
              "name": "metadataURI",
              "type": "string"
            },
            {
              "internalType": "string",
              "name": "qrCodeURI",
              "type": "string"
            },
            {
              "internalType": "uint256",
              "name": "timestamp",
              "type": "uint256"
            },
            {
              "internalType": "address",
              "name": "manufacturer",
              "type": "address"
            }
          ],
          "internalType": "struct PharmaNFT.Batch",
          "name": "",
          "type": "tuple"
        }
      ],
      "stateMutability": "view",
      "type": "function"
    },
    {
      "inputs": [
        {
          "internalType": "uint256",
          "name": "parentId",
          "type": "uint256"
        }
      ],
      "name": "getChildBatches",
      "outputs": [
        {
          "internalType": "uint256[]",
          "name": "",
          "type": "uint256[]"
        }
      ],
      "stateMutability": "view",
      "type": "function"
    },
    {
      "inputs": [
        {
          "internalType": "uint256",
          "name": "childId",
          "type": "uint256"
        }
      ],
      "name": "getParentBatch",
      "outputs": [
        {
          "internalType": "uint256",
          "name": "",
          "type": "uint256"
        }
      ],
      "stateMutability": "view",
      "type": "function"
    },
    {
      "inputs": [
        {
          "internalType": "address",
          "name": "user",
          "type": "address"
        }
      ],
      "name": "getRole",
      "outputs": [
        {
          "internalType": "enum PharmaNFT.Role",
          "name": "",
          "type": "uint8"
        }
      ],
      "stateMutability": "view",
      "type": "function"
    },
    {
      "inputs": [
        {
          "internalType": "uint256",
          "name": "tokenId",
          "type": "uint256"
        }
      ],
      "name": "getTransferHistory",
      "outputs": [
        {
          "components": [
            {
              "internalType": "address",
              "name": "from",
              "type": "address"
            },
            {
              "internalType": "address",
              "name": "to",
              "type": "address"
            },
            {
              "internalType": "uint256",
              "name": "timestamp",
              "type": "uint256"
            },
            {
              "internalType": "enum PharmaNFT.Role",
              "name": "fromRole",
              "type": "uint8"
            },
            {
              "internalType": "enum PharmaNFT.Role",
              "name": "toRole",
              "type": "uint8"
            }
          ],
          "internalType": "struct PharmaNFT.TransferRecord[]",
          "name": "",
          "type": "tuple[]"
        }
      ],
      "stateMutability": "view",
      "type": "function"
    },
    {
      "inputs": [
        {
          "internalType": "address",
          "name": "owner",
          "type": "address"
        },
        {
          "internalType": "address",
          "name": "operator",
          "type": "address"
        }
      ],
      "name": "isApprovedForAll",
      "outputs": [
        {
          "internalType": "bool",
          "name": "",
          "type": "bool"
        }
      ],
      "stateMutability": "view",
      "type": "function"
    },
    {
      "inputs": [
        {
          "internalType": "uint256",
          "name": "",
          "type": "uint256"
        }
      ],
      "name": "isCounterfeit",
      "outputs": [
        {
          "internalType": "bool",
          "name": "",
          "type": "bool"
        }
      ],
      "stateMutability": "view",
      "type": "function"
    },
    {
      "inputs": [
        {
          "internalType": "address",
          "name": "",
          "type": "address"
        }
      ],
      "name": "isManufacturer",
      "outputs": [
        {
          "internalType": "bool",
          "name": "",
          "type": "bool"
        }
      ],
      "stateMutability": "view",
      "type": "function"
    },
    {
      "inputs": [
        {
          "internalType": "uint256",
          "name": "parentId",
          "type": "uint256"
        },
        {
          "internalType": "uint256",
          "name": "childId",
          "type": "uint256"
        }
      ],
      "name": "linkChildBatch",
      "outputs": [],
      "stateMutability": "nonpayable",
      "type": "function"
    },
    {
      "inputs": [
        {
          "internalType": "string",
          "name": "tokenURI",
          "type": "string"
        },
        {
          "internalType": "string",
          "name": "batchID",
          "type": "string"
        },
        {
          "internalType": "string",
          "name": "metadataHash",
          "type": "string"
        }
      ],
      "name": "mintBatch",
      "outputs": [],
      "stateMutability": "nonpayable",
      "type": "function"
    },
    {
      "inputs": [
        {
          "internalType": "uint256",
          "name": "parentId",
          "type": "uint256"
        },
        {
          "internalType": "uint256",
          "name": "count",
          "type": "uint256"
        },
        {
          "internalType": "string",
          "name": "childTokenURI",
          "type": "string"
        }
      ],
      "name": "mintChildBatches",
      "outputs": [],
      "stateMutability": "nonpayable",
      "type": "function"
    },
    {
      "inputs": [],
      "name": "name",
      "outputs": [
        {
          "internalType": "string",
          "name": "",
          "type": "string"
        }
      ],
      "stateMutability": "view",
      "type": "function"
    },
    {
      "inputs": [],
      "name": "owner",
      "outputs": [
        {
          "internalType": "address",
          "name": "",
          "type": "address"
        }
      ],
      "stateMutability": "view",
      "type": "function"
    },
    {
      "inputs": [
        {
          "internalType": "uint256",
          "name": "tokenId",
          "type": "uint256"
        }
      ],
      "name": "ownerOf",
      "outputs": [
        {
          "internalType": "address",
          "name": "",
          "type": "address"
        }
      ],
      "stateMutability": "view",
      "type": "function"
    },
    {
      "inputs": [
        {
          "internalType": "uint256",
          "name": "",
          "type": "uint256"
        }
      ],
      "name": "parentBatch",
      "outputs": [
        {
          "internalType": "uint256",
          "name": "",
          "type": "uint256"
        }
      ],
      "stateMutability": "view",
      "type": "function"
    },
    {
      "inputs": [
        {
          "internalType": "address",
          "name": "",
          "type": "address"
        }
      ],
      "name": "publicKeys",
      "outputs": [
        {
          "internalType": "bytes",
          "name": "",
          "type": "bytes"
        }
      ],
      "stateMutability": "view",
      "type": "function"
    },
    {
      "inputs": [
        {
          "internalType": "uint256",
          "name": "childId",
          "type": "uint256"
        }
      ],
      "name": "recordChildScan",
      "outputs": [],
      "stateMutability": "nonpayable",
      "type": "function"
    },
    {
      "inputs": [
        {
          "internalType": "uint256",
          "name": "tokenId",
          "type": "uint256"
        }
      ],
      "name": "recordScan",
      "outputs": [],
      "stateMutability": "nonpayable",
      "type": "function"
    },
    {
      "inputs": [
        {
          "internalType": "bytes32",
          "name": "messageHash",
          "type": "bytes32"
        },
        {
          "internalType": "bytes",
          "name": "signature",
          "type": "bytes"
        }
      ],
      "name": "recoverSigner",
      "outputs": [
        {
          "internalType": "address",
          "name": "",
          "type": "address"
        }
      ],
      "stateMutability": "pure",
      "type": "function"
    },
    {
      "inputs": [
        {
          "internalType": "address",
          "name": "_manufacturer",
          "type": "address"
        }
      ],
      "name": "registerManufacturer",
      "outputs": [],
      "stateMutability": "nonpayable",
      "type": "function"
    },
    {
      "inputs": [
        {
          "internalType": "address",
          "name": "user",
          "type": "address"
        },
        {
          "internalType": "enum PharmaNFT.Role",
          "name": "role",
          "type": "uint8"
        },
        {
          "internalType": "bytes",
          "name": "pubKey",
          "type": "bytes"
        }
      ],
      "name": "registerStakeholder",
      "outputs": [],
      "stateMutability": "nonpayable",
      "type": "function"
    },
    {
      "inputs": [],
      "name": "renounceOwnership",
      "outputs": [],
      "stateMutability": "nonpayable",
      "type": "function"
    },
    {
      "inputs": [
        {
          "internalType": "address",
          "name": "",
          "type": "address"
        }
      ],
      "name": "roles",
      "outputs": [
        {
          "internalType": "enum PharmaNFT.Role",
          "name": "",
          "type": "uint8"
        }
      ],
      "stateMutability": "view",
      "type": "function"
    },
    {
      "inputs": [
        {
          "internalType": "address",
          "name": "from",
          "type": "address"
        },
        {
          "internalType": "address",
          "name": "to",
          "type": "address"
        },
        {
          "internalType": "uint256",
          "name": "tokenId",
          "type": "uint256"
        }
      ],
      "name": "safeTransferFrom",
      "outputs": [],
      "stateMutability": "nonpayable",
      "type": "function"
    },
    {
      "inputs": [
        {
          "internalType": "address",
          "name": "from",
          "type": "address"
        },
        {
          "internalType": "address",
          "name": "to",
          "type": "address"
        },
        {
          "internalType": "uint256",
          "name": "tokenId",
          "type": "uint256"
        },
        {
          "internalType": "bytes",
          "name": "data",
          "type": "bytes"
        }
      ],
      "name": "safeTransferFrom",
      "outputs": [],
      "stateMutability": "nonpayable",
      "type": "function"
    },
    {
      "inputs": [
        {
          "internalType": "uint256",
          "name": "",
          "type": "uint256"
        },
        {
          "internalType": "enum PharmaNFT.Role",
          "name": "",
          "type": "uint8"
        }
      ],
      "name": "scanTimestamp",
      "outputs": [
        {
          "internalType": "uint256",
          "name": "",
          "type": "uint256"
        }
      ],
      "stateMutability": "view",
      "type": "function"
    },
    {
      "inputs": [
        {
          "internalType": "uint256",
          "name": "",
          "type": "uint256"
        },
        {
          "internalType": "enum PharmaNFT.Role",
          "name": "",
          "type": "uint8"
        }
      ],
      "name": "scannedByRole",
      "outputs": [
        {
          "internalType": "bool",
          "name": "",
          "type": "bool"
        }
      ],
      "stateMutability": "view",
      "type": "function"
    },
    {
      "inputs": [
        {
          "internalType": "address",
          "name": "operator",
          "type": "address"
        },
        {
          "internalType": "bool",
          "name": "approved",
          "type": "bool"
        }
      ],
      "name": "setApprovalForAll",
      "outputs": [],
      "stateMutability": "nonpayable",
      "type": "function"
    },
    {
      "inputs": [
        {
          "internalType": "address",
          "name": "user",
          "type": "address"
        },
        {
          "internalType": "enum PharmaNFT.Role",
          "name": "role",
          "type": "uint8"
        }
      ],
      "name": "setRole",
      "outputs": [],
      "stateMutability": "nonpayable",
      "type": "function"
    },
    {
      "inputs": [
        {
          "internalType": "bytes4",
          "name": "interfaceId",
          "type": "bytes4"
        }
      ],
      "name": "supportsInterface",
      "outputs": [
        {
          "internalType": "bool",
          "name": "",
          "type": "bool"
        }
      ],
      "stateMutability": "view",
      "type": "function"
    },
    {
      "inputs": [],
      "name": "symbol",
      "outputs": [
        {
          "internalType": "string",
          "name": "",
          "type": "string"
        }
      ],
      "stateMutability": "view",
      "type": "function"
    },
    {
      "inputs": [],
      "name": "tokenCounter",
      "outputs": [
        {
          "internalType": "uint256",
          "name": "",
          "type": "uint256"
        }
      ],
      "stateMutability": "view",
      "type": "function"
    },
    {
      "inputs": [
        {
          "internalType": "uint256",
          "name": "tokenId",
          "type": "uint256"
        }
      ],
      "name": "tokenURI",
      "outputs": [
        {
          "internalType": "string",
          "name": "",
          "type": "string"
        }
      ],
      "stateMutability": "view",
      "type": "function"
    },
    {
      "inputs": [
        {
          "internalType": "uint256",
          "name": "tokenId",
          "type": "uint256"
        },
        {
          "internalType": "address",
          "name": "newOwner",
          "type": "address"
        }
      ],
      "name": "transferBatch",
      "outputs": [],
      "stateMutability": "nonpayable",
      "type": "function"
    },
    {
      "inputs": [
        {
          "internalType": "address",
          "name": "from",
          "type": "address"
        },
        {
          "internalType": "address",
          "name": "to",
          "type": "address"
        },
        {
          "internalType": "uint256",
          "name": "tokenId",
          "type": "uint256"
        }
      ],
      "name": "transferFrom",
      "outputs": [],
      "stateMutability": "nonpayable",
      "type": "function"
    },
    {
      "inputs": [
        {
          "internalType": "uint256",
          "name": "",
          "type": "uint256"
        },
        {
          "internalType": "uint256",
          "name": "",
          "type": "uint256"
        }
      ],
      "name": "transferHistory",
      "outputs": [
        {
          "internalType": "address",
          "name": "from",
          "type": "address"
        },
        {
          "internalType": "address",
          "name": "to",
          "type": "address"
        },
        {
          "internalType": "uint256",
          "name": "timestamp",
          "type": "uint256"
        },
        {
          "internalType": "enum PharmaNFT.Role",
          "name": "fromRole",
          "type": "uint8"
        },
        {
          "internalType": "enum PharmaNFT.Role",
          "name": "toRole",
          "type": "uint8"
        }
      ],
      "stateMutability": "view",
      "type": "function"
    },
    {
      "inputs": [
        {
          "internalType": "address",
          "name": "newOwner",
          "type": "address"
        }
      ],
      "name": "transferOwnership",
      "outputs": [],
      "stateMutability": "nonpayable",
      "type": "function"
    },
    {
      "inputs": [
        {
          "internalType": "uint256",
          "name": "parentId",
          "type": "uint256"
        },
        {
          "internalType": "address",
          "name": "newOwner",
          "type": "address"
        }
      ],
      "name": "transferParentAndChildren",
      "outputs": [],
      "stateMutability": "nonpayable",
      "type": "function"
    },
    {
      "inputs": [
        {
          "internalType": "uint256",
          "name": "tokenId",
          "type": "uint256"
        }
      ],
      "name": "verifyBatch",
      "outputs": [
        {
          "internalType": "bool",
          "name": "",
          "type": "bool"
        }
      ],
      "stateMutability": "nonpayable",
      "type": "function"
    },
    {
      "inputs": [
        {
          "internalType": "uint256",
          "name": "tokenId",
          "type": "uint256"
        }
      ],
      "name": "verifyLineage",
      "outputs": [
        {
          "internalType": "bool",
          "name": "",
          "type": "bool"
        }
      ],
      "stateMutability": "view",
      "type": "function"
    }
  ],
  "bytecode": "0x608060405234801561001057600080fd5b50336040518060400160405280600e81526020017f506861726d6142617463684e46540000000000000000000000000000000000008152506040518060400160405280600381526020017f5048420000000000000000000000000000000000000000000000000000000000815250816000908161008d9190610445565b50806001908161009d9190610445565b505050600073ffffffffffffffffffffffffffffffffffffffff168173ffffffffffffffffffffffffffffffffffffffff16036101125760006040517f1e4fbdf70000000000000000000000000000000000000000000000000000000081526004016101099190610558565b60405180910390fd5b6101218161012f60201b60201c565b506001600881905550610573565b6000600760009054906101000a900473ffffffffffffffffffffffffffffffffffffffff16905081600760006101000a81548173ffffffffffffffffffffffffffffffffffffffff021916908373ffffffffffffffffffffffffffffffffffffffff1602179055508173ffffffffffffffffffffffffffffffffffffffff168173ffffffffffffffffffffffffffffffffffffffff167f8be0079c531659141344cd1fd0a4f28419497f9722a3daafe3b4186f6b6457e060405160405180910390a35050565b600081519050919050565b7f4e487b7100000000000000000000000000000000000000000000000000000000600052604160045260246000fd5b7f4e487b7100000000000000000000000000000000000000000000000000000000600052602260045260246000fd5b6000600282049050600182168061027657607f821691505b6020821081036102895761028861022f565b5b50919050565b60008190508160005260206000209050919050565b60006020601f8301049050919050565b600082821b905092915050565b6000600883026102f17fffffffffffffffffffffffffffffffffffffffffffffffffffffffffffffffff826102b4565b6102fb86836102b4565b95508019841693508086168417925050509392505050565b6000819050919050565b6000819050919050565b600061034261033d61033884610313565b61031d565b610313565b9050919050565b6000819050919050565b61035c83610327565b61037061036882610349565b8484546102c1565b825550505050565b600090565b610385610378565b610390818484610353565b505050565b5b818110156103b4576103a960008261037d565b600181019050610396565b5050565b601f8211156103f9576103ca8161028f565b6103d3846102a4565b810160208510156103e2578190505b6103f66103ee856102a4565b830182610395565b50505b505050565b600082821c905092915050565b600061041c600019846008026103fe565b1980831691505092915050565b6000610435838361040b565b9150826002028217905092915050565b61044e826101f5565b67ffffffffffffffff81111561046757610466610200565b5b610471825461025e565b61047c8282856103b8565b600060209050601f8311600181146104af576000841561049d578287015190505b6104a78582610429565b86555061050f565b601f1984166104bd8661028f565b60005b828110156104e5578489015182556001820191506020850194506020810190506104c0565b8683101561050257848901516104fe601f89168261040b565b8355505b6001600288020188555050505b505050505050565b600073ffffffffffffffffffffffffffffffffffffffff82169050919050565b600061054282610517565b9050919050565b61055281610537565b82525050565b600060208201905061056d6000830184610549565b92915050565b617bf4806105826000396000f3fe608060405234801561001057600080fd5b506004361061028a5760003560e01c8063920f02f11161015c578063b6bf2345116100ce578063d093d73d11610087578063d093d73d1461087d578063dedaff54146108ad578063dfe3a3ae146108e1578063e985e9c514610911578063efff8afc14610941578063f2fde38b146109715761028a565b8063b6bf2345146107ab578063b88d4fde146107db578063bac8415e146107f7578063c48b99c014610813578063c87b56dd1461082f578063d082e3811461085f5761028a565b80639d47dcc0116101205780639d47dcc0146106ab578063a22cb465146106db578063a3d6f9a9146106f7578063ac7c9e1214610727578063b19ed1d714610757578063b32c4d8d146107735761028a565b8063920f02f1146105e157806395d89b411461061157806397aba7f91461062f578063993746421461065f5780639adce32b1461068f5761028a565b80634427673311610200578063757a7396116101b9578063757a7396146104fb578063765568bf146105175780637ab410bb146105475780637e30d35c146105775780638bb27d02146105935780638da5cb5b146105c35761028a565b80634427673314610429578063571c3e6014610459578063621f2b0e146104755780636352211e1461049157806370a08231146104c1578063715018a6146104f15761028a565b806317d4a4911161025257806317d4a491146103595780631becdd621461038957806323b872dd146103a55780633d2f5d6b146103c1578063425f9b5f146103f157806342842e0e1461040d5761028a565b806301ffc9a71461028f57806306fdde03146102bf578063081812fc146102dd578063095ea7b31461030d57806309c5112114610329575b600080fd5b6102a960048036038101906102a49190615bfa565b61098d565b6040516102b69190615c42565b60405180910390f35b6102c76109ee565b6040516102d49190615ced565b60405180910390f35b6102f760048036038101906102f29190615d45565b610a80565b6040516103049190615db3565b60405180910390f35b61032760048036038101906103229190615dfa565b610a9c565b005b610343600480360381019061033e9190615e5f565b610ab2565b6040516103509190615eae565b60405180910390f35b610373600480360381019061036e9190615ec9565b610ad7565b6040516103809190615c42565b60405180910390f35b6103a3600480360381019061039e919061602b565b610af7565b005b6103bf60048036038101906103ba919061609a565b611059565b005b6103db60048036038101906103d691906160ed565b61115b565b6040516103e89190615eae565b60405180910390f35b61040b6004803603810190610406919061612d565b61118c565b005b6104276004803603810190610422919061609a565b61145c565b005b610443600480360381019061043e9190615ec9565b61147c565b604051610450919061624b565b60405180910390f35b610473600480360381019061046e9190616266565b6114d2565b005b61048f600480360381019061048a91906162a6565b611545565b005b6104ab60048036038101906104a69190615d45565b611baa565b6040516104b89190615db3565b60405180910390f35b6104db60048036038101906104d69190615ec9565b611bbc565b6040516104e89190615eae565b60405180910390f35b6104f9611c76565b005b610515600480360381019061051091906160ed565b611c8a565b005b610531600480360381019061052c9190615e5f565b611fd0565b60405161053e9190615c42565b60405180910390f35b610561600480360381019061055c9190615d45565b611fff565b60405161056e9190615eae565b60405180910390f35b610591600480360381019061058c9190616346565b612017565b005b6105ad60048036038101906105a89190615d45565b6121b2565b6040516105ba91906164fe565b60405180910390f35b6105cb612350565b6040516105d89190615db3565b60405180910390f35b6105fb60048036038101906105f69190615d45565b61237a565b6040516106089190615c42565b60405180910390f35b61061961240e565b6040516106269190615ced565b60405180910390f35b61064960048036038101906106449190616556565b6124a0565b6040516106569190615db3565b60405180910390f35b61067960048036038101906106749190615ec9565b612524565b604051610686919061624b565b60405180910390f35b6106a960048036038101906106a49190615ec9565b612544565b005b6106c560048036038101906106c09190615d45565b612652565b6040516106d291906166da565b60405180910390f35b6106f560048036038101906106f09190616728565b6129c3565b005b610711600480360381019061070c9190615ec9565b6129d9565b60405161071e91906167bd565b60405180910390f35b610741600480360381019061073c9190615d45565b612a79565b60405161074e9190615eae565b60405180910390f35b610771600480360381019061076c91906162a6565b612a96565b005b61078d60048036038101906107889190615d45565b613440565b6040516107a2999897969594939291906167df565b60405180910390f35b6107c560048036038101906107c09190615d45565b6136fb565b6040516107d29190615eae565b60405180910390f35b6107f560048036038101906107f09190616929565b613713565b005b610811600480360381019061080c9190615d45565b613738565b005b61082d60048036038101906108289190615d45565b613b50565b005b61084960048036038101906108449190615d45565b613c31565b6040516108569190615ced565b60405180910390f35b610867613d44565b6040516108749190615eae565b60405180910390f35b61089760048036038101906108929190615d45565b613d4a565b6040516108a49190615c42565b60405180910390f35b6108c760048036038101906108c291906160ed565b613d6a565b6040516108d89594939291906169ac565b60405180910390f35b6108fb60048036038101906108f69190615d45565b613e17565b6040516109089190615c42565b60405180910390f35b61092b600480360381019061092691906169ff565b6143a3565b6040516109389190615c42565b60405180910390f35b61095b60048036038101906109569190615d45565b614437565b6040516109689190616aee565b60405180910390f35b61098b60048036038101906109869190615ec9565b6144a2565b005b6000634906490660e01b7bffffffffffffffffffffffffffffffffffffffffffffffffffffffff1916827bffffffffffffffffffffffffffffffffffffffffffffffffffffffff191614806109e757506109e682614528565b5b9050919050565b6060600080546109fd90616b3f565b80601f0160208091040260200160405190810160405280929190818152602001828054610a2990616b3f565b8015610a765780601f10610a4b57610100808354040283529160200191610a76565b820191906000526020600020905b815481529060010190602001808311610a5957829003601f168201915b5050505050905090565b6000610a8b8261460a565b50610a9582614692565b9050919050565b610aae8282610aa96146cf565b6146d7565b5050565b6011602052816000526040600020602052806000526040600020600091509150505481565b600b6020528060005260406000206000915054906101000a900460ff1681565b600b60003373ffffffffffffffffffffffffffffffffffffffff1673ffffffffffffffffffffffffffffffffffffffff16815260200190815260200160002060009054906101000a900460ff16610b83576040517f08c379a0000000000000000000000000000000000000000000000000000000008152600401610b7a90616be2565b60405180910390fd5b600073ffffffffffffffffffffffffffffffffffffffff16610ba4846146e9565b73ffffffffffffffffffffffffffffffffffffffff1603610bfa576040517f08c379a0000000000000000000000000000000000000000000000000000000008152600401610bf190616c4e565b60405180910390fd5b3373ffffffffffffffffffffffffffffffffffffffff166009600085815260200190815260200160002060070160009054906101000a900473ffffffffffffffffffffffffffffffffffffffff1673ffffffffffffffffffffffffffffffffffffffff1614610c9e576040517f08c379a0000000000000000000000000000000000000000000000000000000008152600401610c9590616ce0565b60405180910390fd5b600082118015610cb057506103e88211155b610cef576040517f08c379a0000000000000000000000000000000000000000000000000000000008152600401610ce690616d4c565b60405180910390fd5b60005b8281101561105357600060086000815480929190610d0f90616d9b565b919050559050610d1f3382614726565b610d29818461481f565b6040518061012001604052808281526020013373ffffffffffffffffffffffffffffffffffffffff16815260200160016004811115610d6b57610d6a6161d4565b5b815260200160096000888152602001908152602001600020600201610d8f8461487b565b604051602001610da0929190616f03565b6040516020818303038152906040528152602001600960008881526020019081526020016000206003018054610dd590616b3f565b80601f0160208091040260200160405190810160405280929190818152602001828054610e0190616b3f565b8015610e4e5780601f10610e2357610100808354040283529160200191610e4e565b820191906000526020600020905b815481529060010190602001808311610e3157829003601f168201915b505050505081526020018481526020018481526020014281526020013373ffffffffffffffffffffffffffffffffffffffff16815250600960008381526020019081526020016000206000820151816000015560208201518160010160006101000a81548173ffffffffffffffffffffffffffffffffffffffff021916908373ffffffffffffffffffffffffffffffffffffffff16021790555060408201518160010160146101000a81548160ff02191690836004811115610f1357610f126161d4565b5b02179055506060820151816002019081610f2d91906170c9565b506080820151816003019081610f4391906170c9565b5060a0820151816004019081610f5991906170c9565b5060c0820151816005019081610f6f91906170c9565b5060e082015181600601556101008201518160070160006101000a81548173ffffffffffffffffffffffffffffffffffffffff021916908373ffffffffffffffffffffffffffffffffffffffff160217905550905050600e600086815260200190815260200160002081908060018154018082558091505060019003906000526020600020016000909190919091505584600f60008381526020019081526020016000208190555080857f491afba901d0e604bc0b8d87d55ecb79fda68b2af0545c27fd14a1e183c7bc1c60405160405180910390a3508080600101915050610cf2565b50505050565b600073ffffffffffffffffffffffffffffffffffffffff168273ffffffffffffffffffffffffffffffffffffffff16036110cb5760006040517f64a0ae920000000000000000000000000000000000000000000000000000000081526004016110c29190615db3565b60405180910390fd5b60006110df83836110da6146cf565b6149db565b90508373ffffffffffffffffffffffffffffffffffffffff168173ffffffffffffffffffffffffffffffffffffffff1614611155578382826040517f64283d7b00000000000000000000000000000000000000000000000000000000815260040161114c9392919061719b565b60405180910390fd5b50505050565b600e602052816000526040600020818154811061117757600080fd5b90600052602060002001600091509150505481565b600b60003373ffffffffffffffffffffffffffffffffffffffff1673ffffffffffffffffffffffffffffffffffffffff16815260200190815260200160002060009054906101000a900460ff16611218576040517f08c379a000000000000000000000000000000000000000000000000000000000815260040161120f90616be2565b60405180910390fd5b60006008600081548092919061122d90616d9b565b91905055905061123d3382614726565b611247818561481f565b6040518061012001604052808281526020013373ffffffffffffffffffffffffffffffffffffffff16815260200160016004811115611289576112886161d4565b5b81526020018481526020018381526020018581526020018581526020014281526020013373ffffffffffffffffffffffffffffffffffffffff16815250600960008381526020019081526020016000206000820151816000015560208201518160010160006101000a81548173ffffffffffffffffffffffffffffffffffffffff021916908373ffffffffffffffffffffffffffffffffffffffff16021790555060408201518160010160146101000a81548160ff02191690836004811115611355576113546161d4565b5b0217905550606082015181600201908161136f91906170c9565b50608082015181600301908161138591906170c9565b5060a082015181600401908161139b91906170c9565b5060c08201518160050190816113b191906170c9565b5060e082015181600601556101008201518160070160006101000a81548173ffffffffffffffffffffffffffffffffffffffff021916908373ffffffffffffffffffffffffffffffffffffffff1602179055509050503373ffffffffffffffffffffffffffffffffffffffff16817f3125f93d9d33796e9f4a99b590a10aedf12f9cc66116c76669599e8b26aad3168560405161144e9190615ced565b60405180910390a350505050565b61147783838360405180602001604052806000815250613713565b505050565b6000600a60008373ffffffffffffffffffffffffffffffffffffffff1673ffffffffffffffffffffffffffffffffffffffff16815260200190815260200160002060009054906101000a900460ff169050919050565b6114da614bf5565b80600a60008473ffffffffffffffffffffffffffffffffffffffff1673ffffffffffffffffffffffffffffffffffffffff16815260200190815260200160002060006101000a81548160ff0219169083600481111561153c5761153b6161d4565b5b02179055505050565b600073ffffffffffffffffffffffffffffffffffffffff16611566836146e9565b73ffffffffffffffffffffffffffffffffffffffff16036115bc576040517f08c379a00000000000000000000000000000000000000000000000000000000081526004016115b39061721e565b60405180910390fd5b3373ffffffffffffffffffffffffffffffffffffffff166115dc83611baa565b73ffffffffffffffffffffffffffffffffffffffff1614611632576040517f08c379a00000000000000000000000000000000000000000000000000000000081526004016116299061728a565b60405180910390fd5b60006009600084815260200190815260200160002060010160149054906101000a900460ff1690506000600a60008473ffffffffffffffffffffffffffffffffffffffff1673ffffffffffffffffffffffffffffffffffffffff16815260200190815260200160002060009054906101000a900460ff169050600160048111156116bf576116be6161d4565b5b8260048111156116d2576116d16161d4565b5b1480156117325750600260048111156116ee576116ed6161d4565b5b816004811115611701576117006161d4565b5b148061173157506003600481111561171c5761171b6161d4565b5b81600481111561172f5761172e6161d4565b5b145b5b8061179157506002600481111561174c5761174b6161d4565b5b82600481111561175f5761175e6161d4565b5b14801561179057506003600481111561177b5761177a6161d4565b5b81600481111561178e5761178d6161d4565b5b145b5b6117d0576040517f08c379a00000000000000000000000000000000000000000000000000000000081526004016117c7906172f6565b60405180910390fd5b6013600085815260200190815260200160002060009054906101000a900460ff1615611831576040517f08c379a000000000000000000000000000000000000000000000000000000000815260040161182890617362565b60405180910390fd5b60016004811115611845576118446161d4565b5b826004811115611858576118576161d4565b5b146118f357601060008581526020019081526020016000206000836004811115611885576118846161d4565b5b6004811115611897576118966161d4565b5b815260200190815260200160002060009054906101000a900460ff166118f2576040517f08c379a00000000000000000000000000000000000000000000000000000000081526004016118e9906173ce565b60405180910390fd5b5b600d60008581526020019081526020016000206040518060a001604052803373ffffffffffffffffffffffffffffffffffffffff1681526020018573ffffffffffffffffffffffffffffffffffffffff168152602001428152602001846004811115611962576119616161d4565b5b815260200183600481111561197a576119796161d4565b5b815250908060018154018082558091505060019003906000526020600020906004020160009091909190915060008201518160000160006101000a81548173ffffffffffffffffffffffffffffffffffffffff021916908373ffffffffffffffffffffffffffffffffffffffff16021790555060208201518160010160006101000a81548173ffffffffffffffffffffffffffffffffffffffff021916908373ffffffffffffffffffffffffffffffffffffffff1602179055506040820151816002015560608201518160030160006101000a81548160ff02191690836004811115611a6957611a686161d4565b5b021790555060808201518160030160016101000a81548160ff02191690836004811115611a9957611a986161d4565b5b02179055505050611aab338486614c7c565b826009600086815260200190815260200160002060010160006101000a81548173ffffffffffffffffffffffffffffffffffffffff021916908373ffffffffffffffffffffffffffffffffffffffff160217905550806009600086815260200190815260200160002060010160146101000a81548160ff02191690836004811115611b3957611b386161d4565b5b02179055508273ffffffffffffffffffffffffffffffffffffffff163373ffffffffffffffffffffffffffffffffffffffff16857f0d9d3ad1299833596bec6138aae47314cbb71fb92c7582abed06e22840593ad484604051611b9c919061624b565b60405180910390a450505050565b6000611bb58261460a565b9050919050565b60008073ffffffffffffffffffffffffffffffffffffffff168273ffffffffffffffffffffffffffffffffffffffff1603611c2f5760006040517f89c62b64000000000000000000000000000000000000000000000000000000008152600401611c269190615db3565b60405180910390fd5b600360008373ffffffffffffffffffffffffffffffffffffffff1673ffffffffffffffffffffffffffffffffffffffff168152602001908152602001600020549050919050565b611c7e614bf5565b611c886000614de9565b565b600b60003373ffffffffffffffffffffffffffffffffffffffff1673ffffffffffffffffffffffffffffffffffffffff16815260200190815260200160002060009054906101000a900460ff16611d16576040517f08c379a0000000000000000000000000000000000000000000000000000000008152600401611d0d90616be2565b60405180910390fd5b600073ffffffffffffffffffffffffffffffffffffffff16611d37836146e9565b73ffffffffffffffffffffffffffffffffffffffff1603611d8d576040517f08c379a0000000000000000000000000000000000000000000000000000000008152600401611d8490616c4e565b60405180910390fd5b600073ffffffffffffffffffffffffffffffffffffffff16611dae826146e9565b73ffffffffffffffffffffffffffffffffffffffff1603611e04576040517f08c379a0000000000000000000000000000000000000000000000000000000008152600401611dfb9061743a565b60405180910390fd5b3373ffffffffffffffffffffffffffffffffffffffff166009600084815260200190815260200160002060070160009054906101000a900473ffffffffffffffffffffffffffffffffffffffff1673ffffffffffffffffffffffffffffffffffffffff1614611ea8576040517f08c379a0000000000000000000000000000000000000000000000000000000008152600401611e9f90616ce0565b60405180910390fd5b3373ffffffffffffffffffffffffffffffffffffffff166009600083815260200190815260200160002060070160009054906101000a900473ffffffffffffffffffffffffffffffffffffffff1673ffffffffffffffffffffffffffffffffffffffff1614611f4c576040517f08c379a0000000000000000000000000000000000000000000000000000000008152600401611f43906174cc565b60405180910390fd5b600e600083815260200190815260200160002081908060018154018082558091505060019003906000526020600020016000909190919091505581600f60008381526020019081526020016000208190555080827f491afba901d0e604bc0b8d87d55ecb79fda68b2af0545c27fd14a1e183c7bc1c60405160405180910390a35050565b60106020528160005260406000206020528060005260406000206000915091509054906101000a900460ff1681565b600f6020528060005260406000206000915090505481565b61201f614bf5565b82600a60008673ffffffffffffffffffffffffffffffffffffffff1673ffffffffffffffffffffffffffffffffffffffff16815260200190815260200160002060006101000a81548160ff02191690836004811115612081576120806161d4565b5b02179055508181600c60008773ffffffffffffffffffffffffffffffffffffffff1673ffffffffffffffffffffffffffffffffffffffff16815260200190815260200160002091826120d4929190617552565b50600160048111156120e9576120e86161d4565b5b8360048111156120fc576120fb6161d4565b5b0361215a576001600b60008673ffffffffffffffffffffffffffffffffffffffff1673ffffffffffffffffffffffffffffffffffffffff16815260200190815260200160002060006101000a81548160ff0219169083151502179055505b8373ffffffffffffffffffffffffffffffffffffffff167f063fc6e41e7fbc2f6cbd06fae3995d0c8e66fbd82ef2ea6f048c2b6a78dfe8348484846040516121a49392919061764f565b60405180910390a250505050565b6060600d6000838152602001908152602001600020805480602002602001604051908101604052809291908181526020016000905b8282101561234557838290600052602060002090600402016040518060a00160405290816000820160009054906101000a900473ffffffffffffffffffffffffffffffffffffffff1673ffffffffffffffffffffffffffffffffffffffff1673ffffffffffffffffffffffffffffffffffffffff1681526020016001820160009054906101000a900473ffffffffffffffffffffffffffffffffffffffff1673ffffffffffffffffffffffffffffffffffffffff1673ffffffffffffffffffffffffffffffffffffffff168152602001600282015481526020016003820160009054906101000a900460ff1660048111156122e5576122e46161d4565b5b60048111156122f7576122f66161d4565b5b81526020016003820160019054906101000a900460ff1660048111156123205761231f6161d4565b5b6004811115612332576123316161d4565b5b81525050815260200190600101906121e7565b505050509050919050565b6000600760009054906101000a900473ffffffffffffffffffffffffffffffffffffffff16905090565b6000808290505b6000811461240357600073ffffffffffffffffffffffffffffffffffffffff166123aa826146e9565b73ffffffffffffffffffffffffffffffffffffffff16036123cf576000915050612409565b6000600f6000838152602001908152602001600020549050600081036123fa57600192505050612409565b80915050612381565b60019150505b919050565b60606001805461241d90616b3f565b80601f016020809104026020016040519081016040528092919081815260200182805461244990616b3f565b80156124965780601f1061246b57610100808354040283529160200191612496565b820191906000526020600020905b81548152906001019060200180831161247957829003601f168201915b5050505050905090565b600080846040516020016124b491906176ee565b60405160208183030381529060405280519060200120905061251a8185858080601f016020809104026020016040519081016040528093929190818152602001838380828437600081840152601f19601f82011690508083019250505050505050614eaf565b9150509392505050565b600a6020528060005260406000206000915054906101000a900460ff1681565b61254c614bf5565b6001600b60008373ffffffffffffffffffffffffffffffffffffffff1673ffffffffffffffffffffffffffffffffffffffff16815260200190815260200160002060006101000a81548160ff0219169083151502179055506001600a60008373ffffffffffffffffffffffffffffffffffffffff1673ffffffffffffffffffffffffffffffffffffffff16815260200190815260200160002060006101000a81548160ff02191690836004811115612607576126066161d4565b5b02179055508073ffffffffffffffffffffffffffffffffffffffff167fa02022e57eb2e7ae40c00a3b394bec5819680c1ce2bf125655fb6d98dffdb8df60405160405180910390a250565b61265a615b04565b6009600083815260200190815260200160002060405180610120016040529081600082015481526020016001820160009054906101000a900473ffffffffffffffffffffffffffffffffffffffff1673ffffffffffffffffffffffffffffffffffffffff1673ffffffffffffffffffffffffffffffffffffffff1681526020016001820160149054906101000a900460ff1660048111156126fe576126fd6161d4565b5b60048111156127105761270f6161d4565b5b815260200160028201805461272490616b3f565b80601f016020809104026020016040519081016040528092919081815260200182805461275090616b3f565b801561279d5780601f106127725761010080835404028352916020019161279d565b820191906000526020600020905b81548152906001019060200180831161278057829003601f168201915b505050505081526020016003820180546127b690616b3f565b80601f01602080910402602001604051908101604052809291908181526020018280546127e290616b3f565b801561282f5780601f106128045761010080835404028352916020019161282f565b820191906000526020600020905b81548152906001019060200180831161281257829003601f168201915b5050505050815260200160048201805461284890616b3f565b80601f016020809104026020016040519081016040528092919081815260200182805461287490616b3f565b80156128c15780601f10612896576101008083540402835291602001916128c1565b820191906000526020600020905b8154815290600101906020018083116128a457829003601f168201915b505050505081526020016005820180546128da90616b3f565b80601f016020809104026020016040519081016040528092919081815260200182805461290690616b3f565b80156129535780601f1061292857610100808354040283529160200191612953565b820191906000526020600020905b81548152906001019060200180831161293657829003601f168201915b50505050508152602001600682015481526020016007820160009054906101000a900473ffffffffffffffffffffffffffffffffffffffff1673ffffffffffffffffffffffffffffffffffffffff1673ffffffffffffffffffffffffffffffffffffffff16815250509050919050565b6129d56129ce6146cf565b8383614edb565b5050565b600c60205280600052604060002060009150905080546129f890616b3f565b80601f0160208091040260200160405190810160405280929190818152602001828054612a2490616b3f565b8015612a715780601f10612a4657610100808354040283529160200191612a71565b820191906000526020600020905b815481529060010190602001808311612a5457829003601f168201915b505050505081565b6000600f6000838152602001908152602001600020549050919050565b600073ffffffffffffffffffffffffffffffffffffffff16612ab7836146e9565b73ffffffffffffffffffffffffffffffffffffffff1603612b0d576040517f08c379a0000000000000000000000000000000000000000000000000000000008152600401612b0490616c4e565b60405180910390fd5b3373ffffffffffffffffffffffffffffffffffffffff16612b2d83611baa565b73ffffffffffffffffffffffffffffffffffffffff1614612b83576040517f08c379a0000000000000000000000000000000000000000000000000000000008152600401612b7a90617760565b60405180910390fd5b60006009600084815260200190815260200160002060010160149054906101000a900460ff1690506000600a60008473ffffffffffffffffffffffffffffffffffffffff1673ffffffffffffffffffffffffffffffffffffffff16815260200190815260200160002060009054906101000a900460ff16905060016004811115612c1057612c0f6161d4565b5b826004811115612c2357612c226161d4565b5b148015612c83575060026004811115612c3f57612c3e6161d4565b5b816004811115612c5257612c516161d4565b5b1480612c82575060036004811115612c6d57612c6c6161d4565b5b816004811115612c8057612c7f6161d4565b5b145b5b80612ce2575060026004811115612c9d57612c9c6161d4565b5b826004811115612cb057612caf6161d4565b5b148015612ce1575060036004811115612ccc57612ccb6161d4565b5b816004811115612cdf57612cde6161d4565b5b145b5b612d21576040517f08c379a0000000000000000000000000000000000000000000000000000000008152600401612d18906172f6565b60405180910390fd5b6013600085815260200190815260200160002060009054906101000a900460ff1615612d82576040517f08c379a0000000000000000000000000000000000000000000000000000000008152600401612d7990617362565b60405180910390fd5b60016004811115612d9657612d956161d4565b5b826004811115612da957612da86161d4565b5b14612e4457601060008581526020019081526020016000206000836004811115612dd657612dd56161d4565b5b6004811115612de857612de76161d4565b5b815260200190815260200160002060009054906101000a900460ff16612e43576040517f08c379a0000000000000000000000000000000000000000000000000000000008152600401612e3a906173ce565b60405180910390fd5b5b600d60008581526020019081526020016000206040518060a001604052803373ffffffffffffffffffffffffffffffffffffffff1681526020018573ffffffffffffffffffffffffffffffffffffffff168152602001428152602001846004811115612eb357612eb26161d4565b5b8152602001836004811115612ecb57612eca6161d4565b5b815250908060018154018082558091505060019003906000526020600020906004020160009091909190915060008201518160000160006101000a81548173ffffffffffffffffffffffffffffffffffffffff021916908373ffffffffffffffffffffffffffffffffffffffff16021790555060208201518160010160006101000a81548173ffffffffffffffffffffffffffffffffffffffff021916908373ffffffffffffffffffffffffffffffffffffffff1602179055506040820151816002015560608201518160030160006101000a81548160ff02191690836004811115612fba57612fb96161d4565b5b021790555060808201518160030160016101000a81548160ff02191690836004811115612fea57612fe96161d4565b5b02179055505050612ffc338486614c7c565b826009600086815260200190815260200160002060010160006101000a81548173ffffffffffffffffffffffffffffffffffffffff021916908373ffffffffffffffffffffffffffffffffffffffff160217905550806009600086815260200190815260200160002060010160146101000a81548160ff0219169083600481111561308a576130896161d4565b5b02179055508273ffffffffffffffffffffffffffffffffffffffff163373ffffffffffffffffffffffffffffffffffffffff16857f0d9d3ad1299833596bec6138aae47314cbb71fb92c7582abed06e22840593ad4846040516130ed919061624b565b60405180910390a46000600e6000868152602001908152602001600020905060005b81805490508110156134385760008282815481106131305761312f617780565b5b906000526020600020015490503373ffffffffffffffffffffffffffffffffffffffff1661315d826146e9565b73ffffffffffffffffffffffffffffffffffffffff160361342a57600d60008281526020019081526020016000206040518060a001604052803373ffffffffffffffffffffffffffffffffffffffff1681526020018873ffffffffffffffffffffffffffffffffffffffff1681526020014281526020018760048111156131e7576131e66161d4565b5b81526020018660048111156131ff576131fe6161d4565b5b815250908060018154018082558091505060019003906000526020600020906004020160009091909190915060008201518160000160006101000a81548173ffffffffffffffffffffffffffffffffffffffff021916908373ffffffffffffffffffffffffffffffffffffffff16021790555060208201518160010160006101000a81548173ffffffffffffffffffffffffffffffffffffffff021916908373ffffffffffffffffffffffffffffffffffffffff1602179055506040820151816002015560608201518160030160006101000a81548160ff021916908360048111156132ee576132ed6161d4565b5b021790555060808201518160030160016101000a81548160ff0219169083600481111561331e5761331d6161d4565b5b02179055505050613330338783614c7c565b856009600083815260200190815260200160002060010160006101000a81548173ffffffffffffffffffffffffffffffffffffffff021916908373ffffffffffffffffffffffffffffffffffffffff160217905550836009600083815260200190815260200160002060010160146101000a81548160ff021916908360048111156133be576133bd6161d4565b5b02179055508573ffffffffffffffffffffffffffffffffffffffff163373ffffffffffffffffffffffffffffffffffffffff16827f0d9d3ad1299833596bec6138aae47314cbb71fb92c7582abed06e22840593ad487604051613421919061624b565b60405180910390a45b50808060010191505061310f565b505050505050565b60096020528060005260406000206000915090508060000154908060010160009054906101000a900473ffffffffffffffffffffffffffffffffffffffff16908060010160149054906101000a900460ff16908060020180546134a290616b3f565b80601f01602080910402602001604051908101604052809291908181526020018280546134ce90616b3f565b801561351b5780601f106134f05761010080835404028352916020019161351b565b820191906000526020600020905b8154815290600101906020018083116134fe57829003601f168201915b50505050509080600301805461353090616b3f565b80601f016020809104026020016040519081016040528092919081815260200182805461355c90616b3f565b80156135a95780601f1061357e576101008083540402835291602001916135a9565b820191906000526020600020905b81548152906001019060200180831161358c57829003601f168201915b5050505050908060040180546135be90616b3f565b80601f01602080910402602001604051908101604052809291908181526020018280546135ea90616b3f565b80156136375780601f1061360c57610100808354040283529160200191613637565b820191906000526020600020905b81548152906001019060200180831161361a57829003601f168201915b50505050509080600501805461364c90616b3f565b80601f016020809104026020016040519081016040528092919081815260200182805461367890616b3f565b80156136c55780601f1061369a576101008083540402835291602001916136c5565b820191906000526020600020905b8154815290600101906020018083116136a857829003601f168201915b5050505050908060060154908060070160009054906101000a900473ffffffffffffffffffffffffffffffffffffffff16905089565b60126020528060005260406000206000915090505481565b61371e848484611059565b6137326137296146cf565b8585858561504a565b50505050565b600073ffffffffffffffffffffffffffffffffffffffff16613759826146e9565b73ffffffffffffffffffffffffffffffffffffffff16036137af576040517f08c379a00000000000000000000000000000000000000000000000000000000081526004016137a69061721e565b60405180910390fd5b6000600a60003373ffffffffffffffffffffffffffffffffffffffff1673ffffffffffffffffffffffffffffffffffffffff16815260200190815260200160002060009054906101000a900460ff16905060016004811115613814576138136161d4565b5b816004811115613827576138266161d4565b5b1480613857575060026004811115613842576138416161d4565b5b816004811115613855576138546161d4565b5b145b80613886575060036004811115613871576138706161d4565b5b816004811115613884576138836161d4565b5b145b6138c5576040517f08c379a00000000000000000000000000000000000000000000000000000000081526004016138bc906177fb565b60405180910390fd5b6009600083815260200190815260200160002060010160149054906101000a900460ff1660048111156138fb576138fa6161d4565b5b81600481111561390e5761390d6161d4565b5b1461397a5760016013600084815260200190815260200160002060006101000a81548160ff0219169083151502179055506040517f08c379a000000000000000000000000000000000000000000000000000000000815260040161397190617867565b60405180910390fd5b6010600083815260200190815260200160002060008260048111156139a2576139a16161d4565b5b60048111156139b4576139b36161d4565b5b815260200190815260200160002060009054906101000a900460ff1615613a3c5760016013600084815260200190815260200160002060006101000a81548160ff0219169083151502179055506040517f08c379a0000000000000000000000000000000000000000000000000000000008152600401613a33906178d3565b60405180910390fd5b6001601060008481526020019081526020016000206000836004811115613a6657613a656161d4565b5b6004811115613a7857613a776161d4565b5b815260200190815260200160002060006101000a81548160ff02191690831515021790555042601160008481526020019081526020016000206000836004811115613ac657613ac56161d4565b5b6004811115613ad857613ad76161d4565b5b8152602001908152602001600020819055503373ffffffffffffffffffffffffffffffffffffffff16816004811115613b1457613b136161d4565b5b837f1f7eecd27624ef319337ceae543448cb48ff380a247d09accab02c862b3dedd942604051613b449190615eae565b60405180910390a45050565b600073ffffffffffffffffffffffffffffffffffffffff16613b71826146e9565b73ffffffffffffffffffffffffffffffffffffffff1603613bc7576040517f08c379a0000000000000000000000000000000000000000000000000000000008152600401613bbe9061743a565b60405180910390fd5b4260126000838152602001908152602001600020819055503373ffffffffffffffffffffffffffffffffffffffff16817f7fdabc36dcf9f8cce54bfdbded32259e2aadde706d84d3e6ab5f0b420412392042604051613c269190615eae565b60405180910390a350565b6060613c3c8261460a565b506000600660008481526020019081526020016000208054613c5d90616b3f565b80601f0160208091040260200160405190810160405280929190818152602001828054613c8990616b3f565b8015613cd65780601f10613cab57610100808354040283529160200191613cd6565b820191906000526020600020905b815481529060010190602001808311613cb957829003601f168201915b505050505090506000613ce76151fb565b90506000815103613cfc578192505050613d3f565b600082511115613d31578082604051602001613d199291906178f3565b60405160208183030381529060405292505050613d3f565b613d3a84615212565b925050505b919050565b60085481565b60136020528060005260406000206000915054906101000a900460ff1681565b600d6020528160005260406000208181548110613d8657600080fd5b9060005260206000209060040201600091509150508060000160009054906101000a900473ffffffffffffffffffffffffffffffffffffffff16908060010160009054906101000a900473ffffffffffffffffffffffffffffffffffffffff16908060020154908060030160009054906101000a900460ff16908060030160019054906101000a900460ff16905085565b60008073ffffffffffffffffffffffffffffffffffffffff16613e39836146e9565b73ffffffffffffffffffffffffffffffffffffffff1603613e8f576040517f08c379a0000000000000000000000000000000000000000000000000000000008152600401613e869061721e565b60405180910390fd5b6000600a60003373ffffffffffffffffffffffffffffffffffffffff1673ffffffffffffffffffffffffffffffffffffffff16815260200190815260200160002060009054906101000a900460ff16905060026004811115613ef457613ef36161d4565b5b816004811115613f0757613f066161d4565b5b1480613f37575060036004811115613f2257613f216161d4565b5b816004811115613f3557613f346161d4565b5b145b80613f655750600480811115613f5057613f4f6161d4565b5b816004811115613f6357613f626161d4565b5b145b613fa4576040517f08c379a0000000000000000000000000000000000000000000000000000000008152600401613f9b90617963565b60405180910390fd5b60006009600085815260200190815260200160002060405180610120016040529081600082015481526020016001820160009054906101000a900473ffffffffffffffffffffffffffffffffffffffff1673ffffffffffffffffffffffffffffffffffffffff1673ffffffffffffffffffffffffffffffffffffffff1681526020016001820160149054906101000a900460ff16600481111561404a576140496161d4565b5b600481111561405c5761405b6161d4565b5b815260200160028201805461407090616b3f565b80601f016020809104026020016040519081016040528092919081815260200182805461409c90616b3f565b80156140e95780601f106140be576101008083540402835291602001916140e9565b820191906000526020600020905b8154815290600101906020018083116140cc57829003601f168201915b5050505050815260200160038201805461410290616b3f565b80601f016020809104026020016040519081016040528092919081815260200182805461412e90616b3f565b801561417b5780601f106141505761010080835404028352916020019161417b565b820191906000526020600020905b81548152906001019060200180831161415e57829003601f168201915b5050505050815260200160048201805461419490616b3f565b80601f01602080910402602001604051908101604052809291908181526020018280546141c090616b3f565b801561420d5780601f106141e25761010080835404028352916020019161420d565b820191906000526020600020905b8154815290600101906020018083116141f057829003601f168201915b5050505050815260200160058201805461422690616b3f565b80601f016020809104026020016040519081016040528092919081815260200182805461425290616b3f565b801561429f5780601f106142745761010080835404028352916020019161429f565b820191906000526020600020905b81548152906001019060200180831161428257829003601f168201915b50505050508152602001600682015481526020016007820160009054906101000a900473ffffffffffffffffffffffffffffffffffffffff1673ffffffffffffffffffffffffffffffffffffffff1673ffffffffffffffffffffffffffffffffffffffff168152505090506000816020015173ffffffffffffffffffffffffffffffffffffffff1661433086611baa565b73ffffffffffffffffffffffffffffffffffffffff161490503373ffffffffffffffffffffffffffffffffffffffff16857fd7a7432b95a44d2a173bc80366208ab2e074f0ceada55c11f115d7eb32e8e6d0836040516143909190615c42565b60405180910390a3809350505050919050565b6000600560008473ffffffffffffffffffffffffffffffffffffffff1673ffffffffffffffffffffffffffffffffffffffff16815260200190815260200160002060008373ffffffffffffffffffffffffffffffffffffffff1673ffffffffffffffffffffffffffffffffffffffff16815260200190815260200160002060009054906101000a900460ff16905092915050565b6060600e600083815260200190815260200160002080548060200260200160405190810160405280929190818152602001828054801561449657602002820191906000526020600020905b815481526020019060010190808311614482575b50505050509050919050565b6144aa614bf5565b600073ffffffffffffffffffffffffffffffffffffffff168173ffffffffffffffffffffffffffffffffffffffff160361451c5760006040517f1e4fbdf70000000000000000000000000000000000000000000000000000000081526004016145139190615db3565b60405180910390fd5b61452581614de9565b50565b60007f80ac58cd000000000000000000000000000000000000000000000000000000007bffffffffffffffffffffffffffffffffffffffffffffffffffffffff1916827bffffffffffffffffffffffffffffffffffffffffffffffffffffffff191614806145f357507f5b5e139f000000000000000000000000000000000000000000000000000000007bffffffffffffffffffffffffffffffffffffffffffffffffffffffff1916827bffffffffffffffffffffffffffffffffffffffffffffffffffffffff1916145b8061460357506146028261527b565b5b9050919050565b600080614616836146e9565b9050600073ffffffffffffffffffffffffffffffffffffffff168173ffffffffffffffffffffffffffffffffffffffff160361468957826040517f7e2732890000000000000000000000000000000000000000000000000000000081526004016146809190615eae565b60405180910390fd5b80915050919050565b60006004600083815260200190815260200160002060009054906101000a900473ffffffffffffffffffffffffffffffffffffffff169050919050565b600033905090565b6146e483838360016152e5565b505050565b60006002600083815260200190815260200160002060009054906101000a900473ffffffffffffffffffffffffffffffffffffffff169050919050565b600073ffffffffffffffffffffffffffffffffffffffff168273ffffffffffffffffffffffffffffffffffffffff16036147985760006040517f64a0ae9200000000000000000000000000000000000000000000000000000000815260040161478f9190615db3565b60405180910390fd5b60006147a6838360006149db565b9050600073ffffffffffffffffffffffffffffffffffffffff168173ffffffffffffffffffffffffffffffffffffffff161461481a5760006040517f73c6ac6e0000000000000000000000000000000000000000000000000000000081526004016148119190615db3565b60405180910390fd5b505050565b8060066000848152602001908152602001600020908161483f91906170c9565b507ff8e1a15aba9398e019f0b49df1a4fde98ee17ae345cb5f6b5e2c27f5033e8ce78260405161486f9190615eae565b60405180910390a15050565b6060600082036148c2576040518060400160405280600181526020017f300000000000000000000000000000000000000000000000000000000000000081525090506149d6565b600082905060005b600082146148f45780806148dd90616d9b565b915050600a826148ed91906179b2565b91506148ca565b60008167ffffffffffffffff8111156149105761490f615f00565b5b6040519080825280601f01601f1916602001820160405280156149425781602001600182028036833780820191505090505b5090505b600085146149cf5760018261495b91906179e3565b9150600a8561496a9190617a17565b60306149769190617a48565b60f81b81838151811061498c5761498b617780565b5b60200101907effffffffffffffffffffffffffffffffffffffffffffffffffffffffffffff1916908160001a905350600a856149c891906179b2565b9450614946565b8093505050505b919050565b6000806149e7846146e9565b9050600073ffffffffffffffffffffffffffffffffffffffff168373ffffffffffffffffffffffffffffffffffffffff1614614a2957614a288184866154aa565b5b600073ffffffffffffffffffffffffffffffffffffffff168173ffffffffffffffffffffffffffffffffffffffff1614614aba57614a6b6000856000806152e5565b6001600360008373ffffffffffffffffffffffffffffffffffffffff1673ffffffffffffffffffffffffffffffffffffffff168152602001908152602001600020600082825403925050819055505b600073ffffffffffffffffffffffffffffffffffffffff168573ffffffffffffffffffffffffffffffffffffffff1614614b3d576001600360008773ffffffffffffffffffffffffffffffffffffffff1673ffffffffffffffffffffffffffffffffffffffff168152602001908152602001600020600082825401925050819055505b846002600086815260200190815260200160002060006101000a81548173ffffffffffffffffffffffffffffffffffffffff021916908373ffffffffffffffffffffffffffffffffffffffff160217905550838573ffffffffffffffffffffffffffffffffffffffff168273ffffffffffffffffffffffffffffffffffffffff167fddf252ad1be2c89b69c2b068fc378daa952ba7f163c4a11628f55a4df523b3ef60405160405180910390a4809150509392505050565b614bfd6146cf565b73ffffffffffffffffffffffffffffffffffffffff16614c1b612350565b73ffffffffffffffffffffffffffffffffffffffff1614614c7a57614c3e6146cf565b6040517f118cdaa7000000000000000000000000000000000000000000000000000000008152600401614c719190615db3565b60405180910390fd5b565b600073ffffffffffffffffffffffffffffffffffffffff168273ffffffffffffffffffffffffffffffffffffffff1603614cee5760006040517f64a0ae92000000000000000000000000000000000000000000000000000000008152600401614ce59190615db3565b60405180910390fd5b6000614cfc838360006149db565b9050600073ffffffffffffffffffffffffffffffffffffffff168173ffffffffffffffffffffffffffffffffffffffff1603614d6f57816040517f7e273289000000000000000000000000000000000000000000000000000000008152600401614d669190615eae565b60405180910390fd5b8373ffffffffffffffffffffffffffffffffffffffff168173ffffffffffffffffffffffffffffffffffffffff1614614de3578382826040517f64283d7b000000000000000000000000000000000000000000000000000000008152600401614dda9392919061719b565b60405180910390fd5b50505050565b6000600760009054906101000a900473ffffffffffffffffffffffffffffffffffffffff16905081600760006101000a81548173ffffffffffffffffffffffffffffffffffffffff021916908373ffffffffffffffffffffffffffffffffffffffff1602179055508173ffffffffffffffffffffffffffffffffffffffff168173ffffffffffffffffffffffffffffffffffffffff167f8be0079c531659141344cd1fd0a4f28419497f9722a3daafe3b4186f6b6457e060405160405180910390a35050565b600080600080614ebf868661556e565b925092509250614ecf82826155ca565b82935050505092915050565b600073ffffffffffffffffffffffffffffffffffffffff168273ffffffffffffffffffffffffffffffffffffffff1603614f4c57816040517f5b08ba18000000000000000000000000000000000000000000000000000000008152600401614f439190615db3565b60405180910390fd5b80600560008573ffffffffffffffffffffffffffffffffffffffff1673ffffffffffffffffffffffffffffffffffffffff16815260200190815260200160002060008473ffffffffffffffffffffffffffffffffffffffff1673ffffffffffffffffffffffffffffffffffffffff16815260200190815260200160002060006101000a81548160ff0219169083151502179055508173ffffffffffffffffffffffffffffffffffffffff168373ffffffffffffffffffffffffffffffffffffffff167f17307eab39ab6107e8899845ad3d59bd9653f200f220920489ca2b5937696c318360405161503d9190615c42565b60405180910390a3505050565b60008373ffffffffffffffffffffffffffffffffffffffff163b11156151f4578273ffffffffffffffffffffffffffffffffffffffff1663150b7a02868685856040518563ffffffff1660e01b81526004016150a99493929190617a7c565b6020604051808303816000875af19250505080156150e557506040513d601f19601f820116820180604052508101906150e29190617add565b60015b615169573d8060008114615115576040519150601f19603f3d011682016040523d82523d6000602084013e61511a565b606091505b50600081510361516157836040517f64a0ae920000000000000000000000000000000000000000000000000000000081526004016151589190615db3565b60405180910390fd5b805160208201fd5b63150b7a0260e01b7bffffffffffffffffffffffffffffffffffffffffffffffffffffffff1916817bffffffffffffffffffffffffffffffffffffffffffffffffffffffff1916146151f257836040517f64a0ae920000000000000000000000000000000000000000000000000000000081526004016151e99190615db3565b60405180910390fd5b505b5050505050565b606060405180602001604052806000815250905090565b606061521d8261460a565b5060006152286151fb565b905060008151116152485760405180602001604052806000815250615273565b806152528461572e565b6040516020016152639291906178f3565b6040516020818303038152906040525b915050919050565b60007f01ffc9a7000000000000000000000000000000000000000000000000000000007bffffffffffffffffffffffffffffffffffffffffffffffffffffffff1916827bffffffffffffffffffffffffffffffffffffffffffffffffffffffff1916149050919050565b808061531e5750600073ffffffffffffffffffffffffffffffffffffffff168273ffffffffffffffffffffffffffffffffffffffff1614155b1561545257600061532e8461460a565b9050600073ffffffffffffffffffffffffffffffffffffffff168373ffffffffffffffffffffffffffffffffffffffff161415801561539957508273ffffffffffffffffffffffffffffffffffffffff168173ffffffffffffffffffffffffffffffffffffffff1614155b80156153ac57506153aa81846143a3565b155b156153ee57826040517fa9fbf51f0000000000000000000000000000000000000000000000000000000081526004016153e59190615db3565b60405180910390fd5b811561545057838573ffffffffffffffffffffffffffffffffffffffff168273ffffffffffffffffffffffffffffffffffffffff167f8c5be1e5ebec7d5bd14f71427d1e84f3dd0314c0f7b2291e5b200ac8c7c3b92560405160405180910390a45b505b836004600085815260200190815260200160002060006101000a81548173ffffffffffffffffffffffffffffffffffffffff021916908373ffffffffffffffffffffffffffffffffffffffff16021790555050505050565b6154b58383836157fc565b61556957600073ffffffffffffffffffffffffffffffffffffffff168373ffffffffffffffffffffffffffffffffffffffff160361552a57806040517f7e2732890000000000000000000000000000000000000000000000000000000081526004016155219190615eae565b60405180910390fd5b81816040517f177e802f000000000000000000000000000000000000000000000000000000008152600401615560929190617b0a565b60405180910390fd5b505050565b600080600060418451036155b35760008060006020870151925060408701519150606087015160001a90506155a5888285856158bd565b9550955095505050506155c3565b60006002855160001b9250925092505b9250925092565b600060038111156155de576155dd6161d4565b5b8260038111156155f1576155f06161d4565b5b031561572a576001600381111561560b5761560a6161d4565b5b82600381111561561e5761561d6161d4565b5b03615655576040517ff645eedf00000000000000000000000000000000000000000000000000000000815260040160405180910390fd5b60026003811115615669576156686161d4565b5b82600381111561567c5761567b6161d4565b5b036156c1578060001c6040517ffce698f70000000000000000000000000000000000000000000000000000000081526004016156b89190615eae565b60405180910390fd5b6003808111156156d4576156d36161d4565b5b8260038111156156e7576156e66161d4565b5b0361572957806040517fd78bce0c0000000000000000000000000000000000000000000000000000000081526004016157209190617b42565b60405180910390fd5b5b5050565b60606000600161573d846159b1565b01905060008167ffffffffffffffff81111561575c5761575b615f00565b5b6040519080825280601f01601f19166020018201604052801561578e5781602001600182028036833780820191505090505b509050600082602083010190505b6001156157f1578080600190039150507f3031323334353637383961626364656600000000000000000000000000000000600a86061a8153600a85816157e5576157e4617983565b5b0494506000850361579c575b819350505050919050565b60008073ffffffffffffffffffffffffffffffffffffffff168373ffffffffffffffffffffffffffffffffffffffff16141580156158b457508273ffffffffffffffffffffffffffffffffffffffff168473ffffffffffffffffffffffffffffffffffffffff161480615875575061587484846143a3565b5b806158b357508273ffffffffffffffffffffffffffffffffffffffff1661589b83614692565b73ffffffffffffffffffffffffffffffffffffffff16145b5b90509392505050565b60008060007f7fffffffffffffffffffffffffffffff5d576e7357a4501ddfe92f46681b20a08460001c11156158fd5760006003859250925092506159a7565b6000600188888888604051600081526020016040526040516159229493929190617b79565b6020604051602081039080840390855afa158015615944573d6000803e3d6000fd5b505050602060405103519050600073ffffffffffffffffffffffffffffffffffffffff168173ffffffffffffffffffffffffffffffffffffffff160361599857600060016000801b935093509350506159a7565b8060008060001b935093509350505b9450945094915050565b600080600090507a184f03e93ff9f4daa797ed6e38ed64bf6a1f0100000000000000008310615a0f577a184f03e93ff9f4daa797ed6e38ed64bf6a1f0100000000000000008381615a0557615a04617983565b5b0492506040810190505b6d04ee2d6d415b85acef81000000008310615a4c576d04ee2d6d415b85acef81000000008381615a4257615a41617983565b5b0492506020810190505b662386f26fc100008310615a7b57662386f26fc100008381615a7157615a70617983565b5b0492506010810190505b6305f5e1008310615aa4576305f5e1008381615a9a57615a99617983565b5b0492506008810190505b6127108310615ac9576127108381615abf57615abe617983565b5b0492506004810190505b60648310615aec5760648381615ae257615ae1617983565b5b0492506002810190505b600a8310615afb576001810190505b80915050919050565b60405180610120016040528060008152602001600073ffffffffffffffffffffffffffffffffffffffff16815260200160006004811115615b4857615b476161d4565b5b81526020016060815260200160608152602001606081526020016060815260200160008152602001600073ffffffffffffffffffffffffffffffffffffffff1681525090565b6000604051905090565b600080fd5b600080fd5b60007fffffffff0000000000000000000000000000000000000000000000000000000082169050919050565b615bd781615ba2565b8114615be257600080fd5b50565b600081359050615bf481615bce565b92915050565b600060208284031215615c1057615c0f615b98565b5b6000615c1e84828501615be5565b91505092915050565b60008115159050919050565b615c3c81615c27565b82525050565b6000602082019050615c576000830184615c33565b92915050565b600081519050919050565b600082825260208201905092915050565b60005b83811015615c97578082015181840152602081019050615c7c565b60008484015250505050565b6000601f19601f8301169050919050565b6000615cbf82615c5d565b615cc98185615c68565b9350615cd9818560208601615c79565b615ce281615ca3565b840191505092915050565b60006020820190508181036000830152615d078184615cb4565b905092915050565b6000819050919050565b615d2281615d0f565b8114615d2d57600080fd5b50565b600081359050615d3f81615d19565b92915050565b600060208284031215615d5b57615d5a615b98565b5b6000615d6984828501615d30565b91505092915050565b600073ffffffffffffffffffffffffffffffffffffffff82169050919050565b6000615d9d82615d72565b9050919050565b615dad81615d92565b82525050565b6000602082019050615dc86000830184615da4565b92915050565b615dd781615d92565b8114615de257600080fd5b50565b600081359050615df481615dce565b92915050565b60008060408385031215615e1157615e10615b98565b5b6000615e1f85828601615de5565b9250506020615e3085828601615d30565b9150509250929050565b60058110615e4757600080fd5b50565b600081359050615e5981615e3a565b92915050565b60008060408385031215615e7657615e75615b98565b5b6000615e8485828601615d30565b9250506020615e9585828601615e4a565b9150509250929050565b615ea881615d0f565b82525050565b6000602082019050615ec36000830184615e9f565b92915050565b600060208284031215615edf57615ede615b98565b5b6000615eed84828501615de5565b91505092915050565b600080fd5b600080fd5b7f4e487b7100000000000000000000000000000000000000000000000000000000600052604160045260246000fd5b615f3882615ca3565b810181811067ffffffffffffffff82111715615f5757615f56615f00565b5b80604052505050565b6000615f6a615b8e565b9050615f768282615f2f565b919050565b600067ffffffffffffffff821115615f9657615f95615f00565b5b615f9f82615ca3565b9050602081019050919050565b82818337600083830152505050565b6000615fce615fc984615f7b565b615f60565b905082815260208101848484011115615fea57615fe9615efb565b5b615ff5848285615fac565b509392505050565b600082601f83011261601257616011615ef6565b5b8135616022848260208601615fbb565b91505092915050565b60008060006060848603121561604457616043615b98565b5b600061605286828701615d30565b935050602061606386828701615d30565b925050604084013567ffffffffffffffff81111561608457616083615b9d565b5b61609086828701615ffd565b9150509250925092565b6000806000606084860312156160b3576160b2615b98565b5b60006160c186828701615de5565b93505060206160d286828701615de5565b92505060406160e386828701615d30565b9150509250925092565b6000806040838503121561610457616103615b98565b5b600061611285828601615d30565b925050602061612385828601615d30565b9150509250929050565b60008060006060848603121561614657616145615b98565b5b600084013567ffffffffffffffff81111561616457616163615b9d565b5b61617086828701615ffd565b935050602084013567ffffffffffffffff81111561619157616190615b9d565b5b61619d86828701615ffd565b925050604084013567ffffffffffffffff8111156161be576161bd615b9d565b5b6161ca86828701615ffd565b9150509250925092565b7f4e487b7100000000000000000000000000000000000000000000000000000000600052602160045260246000fd5b60058110616214576162136161d4565b5b50565b600081905061622582616203565b919050565b600061623582616217565b9050919050565b6162458161622a565b82525050565b6000602082019050616260600083018461623c565b92915050565b6000806040838503121561627d5761627c615b98565b5b600061628b85828601615de5565b925050602061629c85828601615e4a565b9150509250929050565b600080604083850312156162bd576162bc615b98565b5b60006162cb85828601615d30565b92505060206162dc85828601615de5565b9150509250929050565b600080fd5b600080fd5b60008083601f84011261630657616305615ef6565b5b8235905067ffffffffffffffff811115616323576163226162e6565b5b60208301915083600182028301111561633f5761633e6162eb565b5b9250929050565b600080600080606085870312156163605761635f615b98565b5b600061636e87828801615de5565b945050602061637f87828801615e4a565b935050604085013567ffffffffffffffff8111156163a05761639f615b9d565b5b6163ac878288016162f0565b925092505092959194509250565b600081519050919050565b600082825260208201905092915050565b6000819050602082019050919050565b6163ef81615d92565b82525050565b6163fe81615d0f565b82525050565b61640d8161622a565b82525050565b60a08201600082015161642960008501826163e6565b50602082015161643c60208501826163e6565b50604082015161644f60408501826163f5565b5060608201516164626060850182616404565b5060808201516164756080850182616404565b50505050565b60006164878383616413565b60a08301905092915050565b6000602082019050919050565b60006164ab826163ba565b6164b581856163c5565b93506164c0836163d6565b8060005b838110156164f15781516164d8888261647b565b97506164e383616493565b9250506001810190506164c4565b5085935050505092915050565b6000602082019050818103600083015261651881846164a0565b905092915050565b6000819050919050565b61653381616520565b811461653e57600080fd5b50565b6000813590506165508161652a565b92915050565b60008060006040848603121561656f5761656e615b98565b5b600061657d86828701616541565b935050602084013567ffffffffffffffff81111561659e5761659d615b9d565b5b6165aa868287016162f0565b92509250509250925092565b600082825260208201905092915050565b60006165d282615c5d565b6165dc81856165b6565b93506165ec818560208601615c79565b6165f581615ca3565b840191505092915050565b60006101208301600083015161661960008601826163f5565b50602083015161662c60208601826163e6565b50604083015161663f6040860182616404565b506060830151848203606086015261665782826165c7565b9150506080830151848203608086015261667182826165c7565b91505060a083015184820360a086015261668b82826165c7565b91505060c083015184820360c08601526166a582826165c7565b91505060e08301516166ba60e08601826163f5565b506101008301516166cf6101008601826163e6565b508091505092915050565b600060208201905081810360008301526166f48184616600565b905092915050565b61670581615c27565b811461671057600080fd5b50565b600081359050616722816166fc565b92915050565b6000806040838503121561673f5761673e615b98565b5b600061674d85828601615de5565b925050602061675e85828601616713565b9150509250929050565b600081519050919050565b600082825260208201905092915050565b600061678f82616768565b6167998185616773565b93506167a9818560208601615c79565b6167b281615ca3565b840191505092915050565b600060208201905081810360008301526167d78184616784565b905092915050565b6000610120820190506167f5600083018c615e9f565b616802602083018b615da4565b61680f604083018a61623c565b81810360608301526168218189615cb4565b905081810360808301526168358188615cb4565b905081810360a08301526168498187615cb4565b905081810360c083015261685d8186615cb4565b905061686c60e0830185615e9f565b61687a610100830184615da4565b9a9950505050505050505050565b600067ffffffffffffffff8211156168a3576168a2615f00565b5b6168ac82615ca3565b9050602081019050919050565b60006168cc6168c784616888565b615f60565b9050828152602081018484840111156168e8576168e7615efb565b5b6168f3848285615fac565b509392505050565b600082601f8301126169105761690f615ef6565b5b81356169208482602086016168b9565b91505092915050565b6000806000806080858703121561694357616942615b98565b5b600061695187828801615de5565b945050602061696287828801615de5565b935050604061697387828801615d30565b925050606085013567ffffffffffffffff81111561699457616993615b9d565b5b6169a0878288016168fb565b91505092959194509250565b600060a0820190506169c16000830188615da4565b6169ce6020830187615da4565b6169db6040830186615e9f565b6169e8606083018561623c565b6169f5608083018461623c565b9695505050505050565b60008060408385031215616a1657616a15615b98565b5b6000616a2485828601615de5565b9250506020616a3585828601615de5565b9150509250929050565b600081519050919050565b600082825260208201905092915050565b6000819050602082019050919050565b6000616a7783836163f5565b60208301905092915050565b6000602082019050919050565b6000616a9b82616a3f565b616aa58185616a4a565b9350616ab083616a5b565b8060005b83811015616ae1578151616ac88882616a6b565b9750616ad383616a83565b925050600181019050616ab4565b5085935050505092915050565b60006020820190508181036000830152616b088184616a90565b905092915050565b7f4e487b7100000000000000000000000000000000000000000000000000000000600052602260045260246000fd5b60006002820490506001821680616b5757607f821691505b602082108103616b6a57616b69616b10565b5b50919050565b7f4f6e6c79206d616e756661637475726572732063616e20706572666f726d207460008201527f68697320616374696f6e00000000000000000000000000000000000000000000602082015250565b6000616bcc602a83615c68565b9150616bd782616b70565b604082019050919050565b60006020820190508181036000830152616bfb81616bbf565b9050919050565b7f506172656e7420746f6b656e20646f65736e2774206578697374000000000000600082015250565b6000616c38601a83615c68565b9150616c4382616c02565b602082019050919050565b60006020820190508181036000830152616c6781616c2b565b9050919050565b7f4e6f7420746865206d616e756661637475726572206f6620706172656e74206260008201527f6174636800000000000000000000000000000000000000000000000000000000602082015250565b6000616cca602483615c68565b9150616cd582616c6e565b604082019050919050565b60006020820190508181036000830152616cf981616cbd565b9050919050565b7f496e76616c696420636f756e7400000000000000000000000000000000000000600082015250565b6000616d36600d83615c68565b9150616d4182616d00565b602082019050919050565b60006020820190508181036000830152616d6581616d29565b9050919050565b7f4e487b7100000000000000000000000000000000000000000000000000000000600052601160045260246000fd5b6000616da682615d0f565b91507fffffffffffffffffffffffffffffffffffffffffffffffffffffffffffffffff8203616dd857616dd7616d6c565b5b600182019050919050565b600081905092915050565b60008190508160005260206000209050919050565b60008154616e1081616b3f565b616e1a8186616de3565b94506001821660008114616e355760018114616e4a57616e7d565b60ff1983168652811515820286019350616e7d565b616e5385616dee565b60005b83811015616e7557815481890152600182019150602081019050616e56565b838801955050505b50505092915050565b7f2d43000000000000000000000000000000000000000000000000000000000000600082015250565b6000616ebc600283616de3565b9150616ec782616e86565b600282019050919050565b6000616edd82615c5d565b616ee78185616de3565b9350616ef7818560208601615c79565b80840191505092915050565b6000616f0f8285616e03565b9150616f1a82616eaf565b9150616f268284616ed2565b91508190509392505050565b60006020601f8301049050919050565b600082821b905092915050565b600060088302616f7f7fffffffffffffffffffffffffffffffffffffffffffffffffffffffffffffffff82616f42565b616f898683616f42565b95508019841693508086168417925050509392505050565b6000819050919050565b6000616fc6616fc1616fbc84615d0f565b616fa1565b615d0f565b9050919050565b6000819050919050565b616fe083616fab565b616ff4616fec82616fcd565b848454616f4f565b825550505050565b600090565b617009616ffc565b617014818484616fd7565b505050565b5b818110156170385761702d600082617001565b60018101905061701a565b5050565b601f82111561707d5761704e81616dee565b61705784616f32565b81016020851015617066578190505b61707a61707285616f32565b830182617019565b50505b505050565b600082821c905092915050565b60006170a060001984600802617082565b1980831691505092915050565b60006170b9838361708f565b9150826002028217905092915050565b6170d282615c5d565b67ffffffffffffffff8111156170eb576170ea615f00565b5b6170f58254616b3f565b61710082828561703c565b600060209050601f8311600181146171335760008415617121578287015190505b61712b85826170ad565b865550617193565b601f19841661714186616dee565b60005b8281101561716957848901518255600182019150602085019450602081019050617144565b868310156171865784890151617182601f89168261708f565b8355505b6001600288020188555050505b505050505050565b60006060820190506171b06000830186615da4565b6171bd6020830185615e9f565b6171ca6040830184615da4565b949350505050565b7f546f6b656e20646f65736e277420657869737400000000000000000000000000600082015250565b6000617208601383615c68565b9150617213826171d2565b602082019050919050565b60006020820190508181036000830152617237816171fb565b9050919050565b7f4e6f7420746865206f776e657200000000000000000000000000000000000000600082015250565b6000617274600d83615c68565b915061727f8261723e565b602082019050919050565b600060208201905081810360008301526172a381617267565b9050919050565b7f496e76616c6964207472616e7366657200000000000000000000000000000000600082015250565b60006172e0601083615c68565b91506172eb826172aa565b602082019050919050565b6000602082019050818103600083015261730f816172d3565b9050919050565b7f426174636820666c616767656420636f756e7465726665697400000000000000600082015250565b600061734c601983615c68565b915061735782617316565b602082019050919050565b6000602082019050818103600083015261737b8161733f565b9050919050565b7f5363616e207265717569726564206265666f7265207472616e73666572000000600082015250565b60006173b8601d83615c68565b91506173c382617382565b602082019050919050565b600060208201905081810360008301526173e7816173ab565b9050919050565b7f4368696c6420746f6b656e20646f65736e277420657869737400000000000000600082015250565b6000617424601983615c68565b915061742f826173ee565b602082019050919050565b6000602082019050818103600083015261745381617417565b9050919050565b7f4e6f7420746865206d616e756661637475726572206f66206368696c6420626160008201527f7463680000000000000000000000000000000000000000000000000000000000602082015250565b60006174b6602383615c68565b91506174c18261745a565b604082019050919050565b600060208201905081810360008301526174e5816174a9565b9050919050565b600082905092915050565b60008190508160005260206000209050919050565b601f82111561754d5761751e816174f7565b61752784616f32565b81016020851015617536578190505b61754a61754285616f32565b830182617019565b50505b505050565b61755c83836174ec565b67ffffffffffffffff81111561757557617574615f00565b5b61757f8254616b3f565b61758a82828561750c565b6000601f8311600181146175b957600084156175a7578287013590505b6175b185826170ad565b865550617619565b601f1984166175c7866174f7565b60005b828110156175ef578489013582556001820191506020850194506020810190506175ca565b8683101561760c5784890135617608601f89168261708f565b8355505b6001600288020188555050505b50505050505050565b600061762e8385616773565b935061763b838584615fac565b61764483615ca3565b840190509392505050565b6000604082019050617664600083018661623c565b8181036020830152617677818486617622565b9050949350505050565b7f19457468657265756d205369676e6564204d6573736167653a0a333200000000600082015250565b60006176b7601c83616de3565b91506176c282617681565b601c82019050919050565b6000819050919050565b6176e86176e382616520565b6176cd565b82525050565b60006176f9826176aa565b915061770582846176d7565b60208201915081905092915050565b7f4e6f7420746865206f776e6572206f6620706172656e74000000000000000000600082015250565b600061774a601783615c68565b915061775582617714565b602082019050919050565b600060208201905081810360008301526177798161773d565b9050919050565b7f4e487b7100000000000000000000000000000000000000000000000000000000600052603260045260246000fd5b7f5363616e206e6f7420616c6c6f77656420666f7220726f6c6500000000000000600082015250565b60006177e5601983615c68565b91506177f0826177af565b602082019050919050565b60006020820190508181036000830152617814816177d8565b9050919050565b7f5363616e2062792077726f6e6720726f6c650000000000000000000000000000600082015250565b6000617851601283615c68565b915061785c8261781b565b602082019050919050565b6000602082019050818103600083015261788081617844565b9050919050565b7f416c7265616479207363616e6e656420666f72207468697320726f6c65000000600082015250565b60006178bd601d83615c68565b91506178c882617887565b602082019050919050565b600060208201905081810360008301526178ec816178b0565b9050919050565b60006178ff8285616ed2565b915061790b8284616ed2565b91508190509392505050565b7f556e617574686f72697a65642076657269666965720000000000000000000000600082015250565b600061794d601583615c68565b915061795882617917565b602082019050919050565b6000602082019050818103600083015261797c81617940565b9050919050565b7f4e487b7100000000000000000000000000000000000000000000000000000000600052601260045260246000fd5b60006179bd82615d0f565b91506179c883615d0f565b9250826179d8576179d7617983565b5b828204905092915050565b60006179ee82615d0f565b91506179f983615d0f565b9250828203905081811115617a1157617a10616d6c565b5b92915050565b6000617a2282615d0f565b9150617a2d83615d0f565b925082617a3d57617a3c617983565b5b828206905092915050565b6000617a5382615d0f565b9150617a5e83615d0f565b9250828201905080821115617a7657617a75616d6c565b5b92915050565b6000608082019050617a916000830187615da4565b617a9e6020830186615da4565b617aab6040830185615e9f565b8181036060830152617abd8184616784565b905095945050505050565b600081519050617ad781615bce565b92915050565b600060208284031215617af357617af2615b98565b5b6000617b0184828501617ac8565b91505092915050565b6000604082019050617b1f6000830185615da4565b617b2c6020830184615e9f565b9392505050565b617b3c81616520565b82525050565b6000602082019050617b576000830184617b33565b92915050565b600060ff82169050919050565b617b7381617b5d565b82525050565b6000608082019050617b8e6000830187617b33565b617b9b6020830186617b6a565b617ba86040830185617b33565b617bb56060830184617b33565b9594505050505056fea2646970667358221220644f004f83fab808e349a20f1003fdb1b86dbaf56981f1cc8051a1c2db5cad5664736f6c634300081c0033",
  "linkReferences": {},
  "deployedLinkReferences": {}
}