{
  "_format": "hh-sol-artifact-1",
  "contractName": "PharmaNFT",
  "sourceName": "contracts/PharmaNFT.sol",
  "abi": [
    {
      "inputs": [],
      "stateMutability": "nonpayable",
      "type": "constructor"
    },
    {
      "inputs": [],
      "name": "ECDSAInvalidSignature",
      "type": "error"
    },
    {
      "inputs": [
        {
          "internalType": "uint256",
          "name": "length",
          "type": "uint256"
        }
      ],
      "name": "ECDSAInvalidSignatureLength",
      "type": "error"
    },
    {
      "inputs": [
        {
          "internalType": "bytes32",
          "name": "s",
          "type": "bytes32"
        }
      ],
      "name": "ECDSAInvalidSignatureS",
      "type": "error"
    },
    {
      "inputs": [
        {
          "internalType": "address",
          "name": "sender",
          "type": "address"
        },
        {
          "internalType": "uint256",
          "name": "tokenId",
          "type": "uint256"
        },
        {
          "internalType": "address",
          "name": "owner",
          "type": "address"
        }
      ],
      "name": "ERC721IncorrectOwner",
      "type": "error"
    },
    {
      "inputs": [
        {
          "internalType": "address",
          "name": "operator",
          "type": "address"
        },
        {
          "internalType": "uint256",
          "name": "tokenId",
          "type": "uint256"
        }
      ],
      "name": "ERC721InsufficientApproval",
      "type": "error"
    },
    {
      "inputs": [
        {
          "internalType": "address",
          "name": "approver",
          "type": "address"
        }
      ],
      "name": "ERC721InvalidApprover",
      "type": "error"
    },
    {
      "inputs": [
        {
          "internalType": "address",
          "name": "operator",
          "type": "address"
        }
      ],
      "name": "ERC721InvalidOperator",
      "type": "error"
    },
    {
      "inputs": [
        {
          "internalType": "address",
          "name": "owner",
          "type": "address"
        }
      ],
      "name": "ERC721InvalidOwner",
      "type": "error"
    },
    {
      "inputs": [
        {
          "internalType": "address",
          "name": "receiver",
          "type": "address"
        }
      ],
      "name": "ERC721InvalidReceiver",
      "type": "error"
    },
    {
      "inputs": [
        {
          "internalType": "address",
          "name": "sender",
          "type": "address"
        }
      ],
      "name": "ERC721InvalidSender",
      "type": "error"
    },
    {
      "inputs": [
        {
          "internalType": "uint256",
          "name": "tokenId",
          "type": "uint256"
        }
      ],
      "name": "ERC721NonexistentToken",
      "type": "error"
    },
    {
      "inputs": [
        {
          "internalType": "address",
          "name": "owner",
          "type": "address"
        }
      ],
      "name": "OwnableInvalidOwner",
      "type": "error"
    },
    {
      "inputs": [
        {
          "internalType": "address",
          "name": "account",
          "type": "address"
        }
      ],
      "name": "OwnableUnauthorizedAccount",
      "type": "error"
    },
    {
      "anonymous": false,
      "inputs": [
        {
          "indexed": true,
          "internalType": "address",
          "name": "owner",
          "type": "address"
        },
        {
          "indexed": true,
          "internalType": "address",
          "name": "approved",
          "type": "address"
        },
        {
          "indexed": true,
          "internalType": "uint256",
          "name": "tokenId",
          "type": "uint256"
        }
      ],
      "name": "Approval",
      "type": "event"
    },
    {
      "anonymous": false,
      "inputs": [
        {
          "indexed": true,
          "internalType": "address",
          "name": "owner",
          "type": "address"
        },
        {
          "indexed": true,
          "internalType": "address",
          "name": "operator",
          "type": "address"
        },
        {
          "indexed": false,
          "internalType": "bool",
          "name": "approved",
          "type": "bool"
        }
      ],
      "name": "ApprovalForAll",
      "type": "event"
    },
    {
      "anonymous": false,
      "inputs": [
        {
          "indexed": false,
          "internalType": "uint256",
          "name": "_fromTokenId",
          "type": "uint256"
        },
        {
          "indexed": false,
          "internalType": "uint256",
          "name": "_toTokenId",
          "type": "uint256"
        }
      ],
      "name": "BatchMetadataUpdate",
      "type": "event"
    },
    {
      "anonymous": false,
      "inputs": [
        {
          "indexed": true,
          "internalType": "uint256",
          "name": "tokenId",
          "type": "uint256"
        },
        {
          "indexed": true,
          "internalType": "address",
          "name": "owner",
          "type": "address"
        },
        {
          "indexed": false,
          "internalType": "string",
          "name": "batchID",
          "type": "string"
        }
      ],
      "name": "BatchMinted",
      "type": "event"
    },
    {
      "anonymous": false,
      "inputs": [
        {
          "indexed": true,
          "internalType": "uint256",
          "name": "tokenId",
          "type": "uint256"
        },
        {
          "indexed": true,
          "internalType": "enum PharmaNFT.Role",
          "name": "byRole",
          "type": "uint8"
        },
        {
          "indexed": true,
          "internalType": "address",
          "name": "scanner",
          "type": "address"
        },
        {
          "indexed": false,
          "internalType": "uint256",
          "name": "timestamp",
          "type": "uint256"
        }
      ],
      "name": "BatchScanned",
      "type": "event"
    },
    {
      "anonymous": false,
      "inputs": [
        {
          "indexed": true,
          "internalType": "uint256",
          "name": "tokenId",
          "type": "uint256"
        },
        {
          "indexed": true,
          "internalType": "address",
          "name": "verifier",
          "type": "address"
        },
        {
          "indexed": false,
          "internalType": "bool",
          "name": "valid",
          "type": "bool"
        }
      ],
      "name": "BatchVerified",
      "type": "event"
    },
    {
      "anonymous": false,
      "inputs": [
        {
          "indexed": true,
          "internalType": "uint256",
          "name": "parentId",
          "type": "uint256"
        },
        {
          "indexed": true,
          "internalType": "uint256",
          "name": "childId",
          "type": "uint256"
        }
      ],
      "name": "ChildBatchLinked",
      "type": "event"
    },
    {
      "anonymous": false,
      "inputs": [
        {
          "indexed": true,
          "internalType": "uint256",
          "name": "childId",
          "type": "uint256"
        },
        {
          "indexed": true,
          "internalType": "address",
          "name": "scanner",
          "type": "address"
        },
        {
          "indexed": false,
          "internalType": "uint256",
          "name": "timestamp",
          "type": "uint256"
        }
      ],
      "name": "ChildScanned",
      "type": "event"
    },
    {
      "anonymous": false,
      "inputs": [
        {
          "indexed": true,
          "internalType": "address",
          "name": "manufacturer",
          "type": "address"
        }
      ],
      "name": "ManufacturerRegistered",
      "type": "event"
    },
    {
      "anonymous": false,
      "inputs": [
        {
          "indexed": false,
          "internalType": "uint256",
          "name": "_tokenId",
          "type": "uint256"
        }
      ],
      "name": "MetadataUpdate",
      "type": "event"
    },
    {
      "anonymous": false,
      "inputs": [
        {
          "indexed": true,
          "internalType": "address",
          "name": "previousOwner",
          "type": "address"
        },
        {
          "indexed": true,
          "internalType": "address",
          "name": "newOwner",
          "type": "address"
        }
      ],
      "name": "OwnershipTransferred",
      "type": "event"
    },
    {
      "anonymous": false,
      "inputs": [
        {
          "indexed": true,
          "internalType": "uint256",
          "name": "tokenId",
          "type": "uint256"
        },
        {
          "indexed": true,
          "internalType": "address",
          "name": "from",
          "type": "address"
        },
        {
          "indexed": true,
          "internalType": "address",
          "name": "to",
          "type": "address"
        },
        {
          "indexed": false,
          "internalType": "enum PharmaNFT.Role",
          "name": "newRole",
          "type": "uint8"
        }
      ],
      "name": "OwnershipTransferred",
      "type": "event"
    },
    {
      "anonymous": false,
      "inputs": [
        {
          "indexed": true,
          "internalType": "address",
          "name": "user",
          "type": "address"
        },
        {
          "indexed": false,
          "internalType": "enum PharmaNFT.Role",
          "name": "role",
          "type": "uint8"
        },
        {
          "indexed": false,
          "internalType": "bytes",
          "name": "pubKey",
          "type": "bytes"
        }
      ],
      "name": "StakeholderRegistered",
      "type": "event"
    },
    {
      "anonymous": false,
      "inputs": [
        {
          "indexed": true,
          "internalType": "address",
          "name": "from",
          "type": "address"
        },
        {
          "indexed": true,
          "internalType": "address",
          "name": "to",
          "type": "address"
        },
        {
          "indexed": true,
          "internalType": "uint256",
          "name": "tokenId",
          "type": "uint256"
        }
      ],
      "name": "Transfer",
      "type": "event"
    },
    {
      "inputs": [
        {
          "internalType": "address",
          "name": "to",
          "type": "address"
        },
        {
          "internalType": "uint256",
          "name": "tokenId",
          "type": "uint256"
        }
      ],
      "name": "approve",
      "outputs": [],
      "stateMutability": "nonpayable",
      "type": "function"
    },
    {
      "inputs": [
        {
          "internalType": "address",
          "name": "owner",
          "type": "address"
        }
      ],
      "name": "balanceOf",
      "outputs": [
        {
          "internalType": "uint256",
          "name": "",
          "type": "uint256"
        }
      ],
      "stateMutability": "view",
      "type": "function"
    },
    {
      "inputs": [
        {
          "internalType": "uint256",
          "name": "",
          "type": "uint256"
        }
      ],
      "name": "batches",
      "outputs": [
        {
          "internalType": "uint256",
          "name": "tokenId",
          "type": "uint256"
        },
        {
          "internalType": "address",
          "name": "currentOwner",
          "type": "address"
        },
        {
          "internalType": "enum PharmaNFT.Role",
          "name": "currentRole",
          "type": "uint8"
        },
        {
          "internalType": "string",
          "name": "batchID",
          "type": "string"
        },
        {
          "internalType": "string",
          "name": "metadataURI",
          "type": "string"
        },
        {
          "internalType": "string",
          "name": "qrCodeURI",
          "type": "string"
        },
        {
          "internalType": "uint256",
          "name": "timestamp",
          "type": "uint256"
        },
        {
          "internalType": "address",
          "name": "manufacturer",
          "type": "address"
        }
      ],
      "stateMutability": "view",
      "type": "function"
    },
    {
      "inputs": [
        {
          "internalType": "uint256",
          "name": "",
          "type": "uint256"
        },
        {
          "internalType": "uint256",
          "name": "",
          "type": "uint256"
        }
      ],
      "name": "childBatches",
      "outputs": [
        {
          "internalType": "uint256",
          "name": "",
          "type": "uint256"
        }
      ],
      "stateMutability": "view",
      "type": "function"
    },
    {
      "inputs": [
        {
          "internalType": "uint256",
          "name": "",
          "type": "uint256"
        }
      ],
      "name": "childScanTimestamp",
      "outputs": [
        {
          "internalType": "uint256",
          "name": "",
          "type": "uint256"
        }
      ],
      "stateMutability": "view",
      "type": "function"
    },
    {
      "inputs": [
        {
          "internalType": "uint256",
          "name": "tokenId",
          "type": "uint256"
        }
      ],
      "name": "getApproved",
      "outputs": [
        {
          "internalType": "address",
          "name": "",
          "type": "address"
        }
      ],
      "stateMutability": "view",
      "type": "function"
    },
    {
      "inputs": [
        {
          "internalType": "uint256",
          "name": "tokenId",
          "type": "uint256"
        }
      ],
      "name": "getBatchDetails",
      "outputs": [
        {
          "components": [
            {
              "internalType": "uint256",
              "name": "tokenId",
              "type": "uint256"
            },
            {
              "internalType": "address",
              "name": "currentOwner",
              "type": "address"
            },
            {
              "internalType": "enum PharmaNFT.Role",
              "name": "currentRole",
              "type": "uint8"
            },
            {
              "internalType": "string",
              "name": "batchID",
              "type": "string"
            },
            {
              "internalType": "string",
              "name": "metadataURI",
              "type": "string"
            },
            {
              "internalType": "string",
              "name": "qrCodeURI",
              "type": "string"
            },
            {
              "internalType": "uint256",
              "name": "timestamp",
              "type": "uint256"
            },
            {
              "internalType": "address",
              "name": "manufacturer",
              "type": "address"
            }
          ],
          "internalType": "struct PharmaNFT.Batch",
          "name": "",
          "type": "tuple"
        }
      ],
      "stateMutability": "view",
      "type": "function"
    },
    {
      "inputs": [
        {
          "internalType": "uint256",
          "name": "parentId",
          "type": "uint256"
        }
      ],
      "name": "getChildBatches",
      "outputs": [
        {
          "internalType": "uint256[]",
          "name": "",
          "type": "uint256[]"
        }
      ],
      "stateMutability": "view",
      "type": "function"
    },
    {
      "inputs": [
        {
          "internalType": "uint256",
          "name": "childId",
          "type": "uint256"
        }
      ],
      "name": "getParentBatch",
      "outputs": [
        {
          "internalType": "uint256",
          "name": "",
          "type": "uint256"
        }
      ],
      "stateMutability": "view",
      "type": "function"
    },
    {
      "inputs": [
        {
          "internalType": "address",
          "name": "user",
          "type": "address"
        }
      ],
      "name": "getRole",
      "outputs": [
        {
          "internalType": "enum PharmaNFT.Role",
          "name": "",
          "type": "uint8"
        }
      ],
      "stateMutability": "view",
      "type": "function"
    },
    {
      "inputs": [
        {
          "internalType": "uint256",
          "name": "tokenId",
          "type": "uint256"
        }
      ],
      "name": "getTransferHistory",
      "outputs": [
        {
          "components": [
            {
              "internalType": "address",
              "name": "from",
              "type": "address"
            },
            {
              "internalType": "address",
              "name": "to",
              "type": "address"
            },
            {
              "internalType": "uint256",
              "name": "timestamp",
              "type": "uint256"
            },
            {
              "internalType": "enum PharmaNFT.Role",
              "name": "fromRole",
              "type": "uint8"
            },
            {
              "internalType": "enum PharmaNFT.Role",
              "name": "toRole",
              "type": "uint8"
            }
          ],
          "internalType": "struct PharmaNFT.TransferRecord[]",
          "name": "",
          "type": "tuple[]"
        }
      ],
      "stateMutability": "view",
      "type": "function"
    },
    {
      "inputs": [
        {
          "internalType": "address",
          "name": "owner",
          "type": "address"
        },
        {
          "internalType": "address",
          "name": "operator",
          "type": "address"
        }
      ],
      "name": "isApprovedForAll",
      "outputs": [
        {
          "internalType": "bool",
          "name": "",
          "type": "bool"
        }
      ],
      "stateMutability": "view",
      "type": "function"
    },
    {
      "inputs": [
        {
          "internalType": "uint256",
          "name": "",
          "type": "uint256"
        }
      ],
      "name": "isCounterfeit",
      "outputs": [
        {
          "internalType": "bool",
          "name": "",
          "type": "bool"
        }
      ],
      "stateMutability": "view",
      "type": "function"
    },
    {
      "inputs": [
        {
          "internalType": "address",
          "name": "",
          "type": "address"
        }
      ],
      "name": "isManufacturer",
      "outputs": [
        {
          "internalType": "bool",
          "name": "",
          "type": "bool"
        }
      ],
      "stateMutability": "view",
      "type": "function"
    },
    {
      "inputs": [
        {
          "internalType": "uint256",
          "name": "parentId",
          "type": "uint256"
        },
        {
          "internalType": "uint256",
          "name": "childId",
          "type": "uint256"
        }
      ],
      "name": "linkChildBatch",
      "outputs": [],
      "stateMutability": "nonpayable",
      "type": "function"
    },
    {
      "inputs": [
        {
          "internalType": "string",
          "name": "tokenURI",
          "type": "string"
        },
        {
          "internalType": "string",
          "name": "batchID",
          "type": "string"
        }
      ],
      "name": "mintBatch",
      "outputs": [],
      "stateMutability": "nonpayable",
      "type": "function"
    },
    {
      "inputs": [
        {
          "internalType": "uint256",
          "name": "parentId",
          "type": "uint256"
        },
        {
          "internalType": "uint256",
          "name": "count",
          "type": "uint256"
        },
        {
          "internalType": "string",
          "name": "childTokenURI",
          "type": "string"
        }
      ],
      "name": "mintChildBatches",
      "outputs": [],
      "stateMutability": "nonpayable",
      "type": "function"
    },
    {
      "inputs": [],
      "name": "name",
      "outputs": [
        {
          "internalType": "string",
          "name": "",
          "type": "string"
        }
      ],
      "stateMutability": "view",
      "type": "function"
    },
    {
      "inputs": [],
      "name": "owner",
      "outputs": [
        {
          "internalType": "address",
          "name": "",
          "type": "address"
        }
      ],
      "stateMutability": "view",
      "type": "function"
    },
    {
      "inputs": [
        {
          "internalType": "uint256",
          "name": "tokenId",
          "type": "uint256"
        }
      ],
      "name": "ownerOf",
      "outputs": [
        {
          "internalType": "address",
          "name": "",
          "type": "address"
        }
      ],
      "stateMutability": "view",
      "type": "function"
    },
    {
      "inputs": [
        {
          "internalType": "uint256",
          "name": "",
          "type": "uint256"
        }
      ],
      "name": "parentBatch",
      "outputs": [
        {
          "internalType": "uint256",
          "name": "",
          "type": "uint256"
        }
      ],
      "stateMutability": "view",
      "type": "function"
    },
    {
      "inputs": [
        {
          "internalType": "address",
          "name": "",
          "type": "address"
        }
      ],
      "name": "publicKeys",
      "outputs": [
        {
          "internalType": "bytes",
          "name": "",
          "type": "bytes"
        }
      ],
      "stateMutability": "view",
      "type": "function"
    },
    {
      "inputs": [
        {
          "internalType": "uint256",
          "name": "childId",
          "type": "uint256"
        }
      ],
      "name": "recordChildScan",
      "outputs": [],
      "stateMutability": "nonpayable",
      "type": "function"
    },
    {
      "inputs": [
        {
          "internalType": "uint256",
          "name": "tokenId",
          "type": "uint256"
        }
      ],
      "name": "recordScan",
      "outputs": [],
      "stateMutability": "nonpayable",
      "type": "function"
    },
    {
      "inputs": [
        {
          "internalType": "bytes32",
          "name": "messageHash",
          "type": "bytes32"
        },
        {
          "internalType": "bytes",
          "name": "signature",
          "type": "bytes"
        }
      ],
      "name": "recoverSigner",
      "outputs": [
        {
          "internalType": "address",
          "name": "",
          "type": "address"
        }
      ],
      "stateMutability": "pure",
      "type": "function"
    },
    {
      "inputs": [
        {
          "internalType": "address",
          "name": "_manufacturer",
          "type": "address"
        }
      ],
      "name": "registerManufacturer",
      "outputs": [],
      "stateMutability": "nonpayable",
      "type": "function"
    },
    {
      "inputs": [
        {
          "internalType": "address",
          "name": "user",
          "type": "address"
        },
        {
          "internalType": "enum PharmaNFT.Role",
          "name": "role",
          "type": "uint8"
        },
        {
          "internalType": "bytes",
          "name": "pubKey",
          "type": "bytes"
        }
      ],
      "name": "registerStakeholder",
      "outputs": [],
      "stateMutability": "nonpayable",
      "type": "function"
    },
    {
      "inputs": [],
      "name": "renounceOwnership",
      "outputs": [],
      "stateMutability": "nonpayable",
      "type": "function"
    },
    {
      "inputs": [
        {
          "internalType": "address",
          "name": "",
          "type": "address"
        }
      ],
      "name": "roles",
      "outputs": [
        {
          "internalType": "enum PharmaNFT.Role",
          "name": "",
          "type": "uint8"
        }
      ],
      "stateMutability": "view",
      "type": "function"
    },
    {
      "inputs": [
        {
          "internalType": "address",
          "name": "from",
          "type": "address"
        },
        {
          "internalType": "address",
          "name": "to",
          "type": "address"
        },
        {
          "internalType": "uint256",
          "name": "tokenId",
          "type": "uint256"
        }
      ],
      "name": "safeTransferFrom",
      "outputs": [],
      "stateMutability": "nonpayable",
      "type": "function"
    },
    {
      "inputs": [
        {
          "internalType": "address",
          "name": "from",
          "type": "address"
        },
        {
          "internalType": "address",
          "name": "to",
          "type": "address"
        },
        {
          "internalType": "uint256",
          "name": "tokenId",
          "type": "uint256"
        },
        {
          "internalType": "bytes",
          "name": "data",
          "type": "bytes"
        }
      ],
      "name": "safeTransferFrom",
      "outputs": [],
      "stateMutability": "nonpayable",
      "type": "function"
    },
    {
      "inputs": [
        {
          "internalType": "uint256",
          "name": "",
          "type": "uint256"
        },
        {
          "internalType": "enum PharmaNFT.Role",
          "name": "",
          "type": "uint8"
        }
      ],
      "name": "scanTimestamp",
      "outputs": [
        {
          "internalType": "uint256",
          "name": "",
          "type": "uint256"
        }
      ],
      "stateMutability": "view",
      "type": "function"
    },
    {
      "inputs": [
        {
          "internalType": "uint256",
          "name": "",
          "type": "uint256"
        },
        {
          "internalType": "enum PharmaNFT.Role",
          "name": "",
          "type": "uint8"
        }
      ],
      "name": "scannedByRole",
      "outputs": [
        {
          "internalType": "bool",
          "name": "",
          "type": "bool"
        }
      ],
      "stateMutability": "view",
      "type": "function"
    },
    {
      "inputs": [
        {
          "internalType": "address",
          "name": "operator",
          "type": "address"
        },
        {
          "internalType": "bool",
          "name": "approved",
          "type": "bool"
        }
      ],
      "name": "setApprovalForAll",
      "outputs": [],
      "stateMutability": "nonpayable",
      "type": "function"
    },
    {
      "inputs": [
        {
          "internalType": "address",
          "name": "user",
          "type": "address"
        },
        {
          "internalType": "enum PharmaNFT.Role",
          "name": "role",
          "type": "uint8"
        }
      ],
      "name": "setRole",
      "outputs": [],
      "stateMutability": "nonpayable",
      "type": "function"
    },
    {
      "inputs": [
        {
          "internalType": "bytes4",
          "name": "interfaceId",
          "type": "bytes4"
        }
      ],
      "name": "supportsInterface",
      "outputs": [
        {
          "internalType": "bool",
          "name": "",
          "type": "bool"
        }
      ],
      "stateMutability": "view",
      "type": "function"
    },
    {
      "inputs": [],
      "name": "symbol",
      "outputs": [
        {
          "internalType": "string",
          "name": "",
          "type": "string"
        }
      ],
      "stateMutability": "view",
      "type": "function"
    },
    {
      "inputs": [],
      "name": "tokenCounter",
      "outputs": [
        {
          "internalType": "uint256",
          "name": "",
          "type": "uint256"
        }
      ],
      "stateMutability": "view",
      "type": "function"
    },
    {
      "inputs": [
        {
          "internalType": "uint256",
          "name": "tokenId",
          "type": "uint256"
        }
      ],
      "name": "tokenURI",
      "outputs": [
        {
          "internalType": "string",
          "name": "",
          "type": "string"
        }
      ],
      "stateMutability": "view",
      "type": "function"
    },
    {
      "inputs": [
        {
          "internalType": "uint256",
          "name": "tokenId",
          "type": "uint256"
        },
        {
          "internalType": "address",
          "name": "newOwner",
          "type": "address"
        }
      ],
      "name": "transferBatch",
      "outputs": [],
      "stateMutability": "nonpayable",
      "type": "function"
    },
    {
      "inputs": [
        {
          "internalType": "address",
          "name": "from",
          "type": "address"
        },
        {
          "internalType": "address",
          "name": "to",
          "type": "address"
        },
        {
          "internalType": "uint256",
          "name": "tokenId",
          "type": "uint256"
        }
      ],
      "name": "transferFrom",
      "outputs": [],
      "stateMutability": "nonpayable",
      "type": "function"
    },
    {
      "inputs": [
        {
          "internalType": "uint256",
          "name": "",
          "type": "uint256"
        },
        {
          "internalType": "uint256",
          "name": "",
          "type": "uint256"
        }
      ],
      "name": "transferHistory",
      "outputs": [
        {
          "internalType": "address",
          "name": "from",
          "type": "address"
        },
        {
          "internalType": "address",
          "name": "to",
          "type": "address"
        },
        {
          "internalType": "uint256",
          "name": "timestamp",
          "type": "uint256"
        },
        {
          "internalType": "enum PharmaNFT.Role",
          "name": "fromRole",
          "type": "uint8"
        },
        {
          "internalType": "enum PharmaNFT.Role",
          "name": "toRole",
          "type": "uint8"
        }
      ],
      "stateMutability": "view",
      "type": "function"
    },
    {
      "inputs": [
        {
          "internalType": "address",
          "name": "newOwner",
          "type": "address"
        }
      ],
      "name": "transferOwnership",
      "outputs": [],
      "stateMutability": "nonpayable",
      "type": "function"
    },
    {
      "inputs": [
        {
          "internalType": "uint256",
          "name": "parentId",
          "type": "uint256"
        },
        {
          "internalType": "address",
          "name": "newOwner",
          "type": "address"
        }
      ],
      "name": "transferParentAndChildren",
      "outputs": [],
      "stateMutability": "nonpayable",
      "type": "function"
    },
    {
      "inputs": [
        {
          "internalType": "uint256",
          "name": "tokenId",
          "type": "uint256"
        }
      ],
      "name": "verifyBatch",
      "outputs": [
        {
          "internalType": "bool",
          "name": "",
          "type": "bool"
        }
      ],
      "stateMutability": "nonpayable",
      "type": "function"
    },
    {
      "inputs": [
        {
          "internalType": "uint256",
          "name": "tokenId",
          "type": "uint256"
        }
      ],
      "name": "verifyLineage",
      "outputs": [
        {
          "internalType": "bool",
          "name": "",
          "type": "bool"
        }
      ],
      "stateMutability": "view",
      "type": "function"
    }
  ],
  "bytecode": "0x608060405234801561001057600080fd5b50336040518060400160405280600e81526020017f506861726d6142617463684e46540000000000000000000000000000000000008152506040518060400160405280600381526020017f5048420000000000000000000000000000000000000000000000000000000000815250816000908161008d9190610445565b50806001908161009d9190610445565b505050600073ffffffffffffffffffffffffffffffffffffffff168173ffffffffffffffffffffffffffffffffffffffff16036101125760006040517f1e4fbdf70000000000000000000000000000000000000000000000000000000081526004016101099190610558565b60405180910390fd5b6101218161012f60201b60201c565b506001600881905550610573565b6000600760009054906101000a900473ffffffffffffffffffffffffffffffffffffffff16905081600760006101000a81548173ffffffffffffffffffffffffffffffffffffffff021916908373ffffffffffffffffffffffffffffffffffffffff1602179055508173ffffffffffffffffffffffffffffffffffffffff168173ffffffffffffffffffffffffffffffffffffffff167f8be0079c531659141344cd1fd0a4f28419497f9722a3daafe3b4186f6b6457e060405160405180910390a35050565b600081519050919050565b7f4e487b7100000000000000000000000000000000000000000000000000000000600052604160045260246000fd5b7f4e487b7100000000000000000000000000000000000000000000000000000000600052602260045260246000fd5b6000600282049050600182168061027657607f821691505b6020821081036102895761028861022f565b5b50919050565b60008190508160005260206000209050919050565b60006020601f8301049050919050565b600082821b905092915050565b6000600883026102f17fffffffffffffffffffffffffffffffffffffffffffffffffffffffffffffffff826102b4565b6102fb86836102b4565b95508019841693508086168417925050509392505050565b6000819050919050565b6000819050919050565b600061034261033d61033884610313565b61031d565b610313565b9050919050565b6000819050919050565b61035c83610327565b61037061036882610349565b8484546102c1565b825550505050565b600090565b610385610378565b610390818484610353565b505050565b5b818110156103b4576103a960008261037d565b600181019050610396565b5050565b601f8211156103f9576103ca8161028f565b6103d3846102a4565b810160208510156103e2578190505b6103f66103ee856102a4565b830182610395565b50505b505050565b600082821c905092915050565b600061041c600019846008026103fe565b1980831691505092915050565b6000610435838361040b565b9150826002028217905092915050565b61044e826101f5565b67ffffffffffffffff81111561046757610466610200565b5b610471825461025e565b61047c8282856103b8565b600060209050601f8311600181146104af576000841561049d578287015190505b6104a78582610429565b86555061050f565b601f1984166104bd8661028f565b60005b828110156104e5578489015182556001820191506020850194506020810190506104c0565b8683101561050257848901516104fe601f89168261040b565b8355505b6001600288020188555050505b505050505050565b600073ffffffffffffffffffffffffffffffffffffffff82169050919050565b600061054282610517565b9050919050565b61055281610537565b82525050565b600060208201905061056d6000830184610549565b92915050565b617900806105826000396000f3fe608060405234801561001057600080fd5b506004361061028a5760003560e01c8063920f02f11161015c578063b6bf2345116100ce578063d093d73d11610087578063d093d73d1461087c578063dedaff54146108ac578063dfe3a3ae146108e0578063e985e9c514610910578063efff8afc14610940578063f2fde38b146109705761028a565b8063b6bf2345146107aa578063b88d4fde146107da578063bac8415e146107f6578063c48b99c014610812578063c87b56dd1461082e578063d082e3811461085e5761028a565b80639d47dcc0116101205780639d47dcc0146106ab578063a22cb465146106db578063a3d6f9a9146106f7578063ac7c9e1214610727578063b19ed1d714610757578063b32c4d8d146107735761028a565b8063920f02f1146105e157806395d89b411461061157806397aba7f91461062f578063993746421461065f5780639adce32b1461068f5761028a565b80634427673311610200578063757a7396116101b9578063757a7396146104fb578063765568bf146105175780637ab410bb146105475780637e30d35c146105775780638bb27d02146105935780638da5cb5b146105c35761028a565b80634427673314610429578063571c3e6014610459578063621f2b0e146104755780636352211e1461049157806370a08231146104c1578063715018a6146104f15761028a565b806317d4a4911161025257806317d4a491146103595780631becdd621461038957806323b872dd146103a55780633d2f5d6b146103c157806342842e0e146103f157806342e065721461040d5761028a565b806301ffc9a71461028f57806306fdde03146102bf578063081812fc146102dd578063095ea7b31461030d57806309c5112114610329575b600080fd5b6102a960048036038101906102a49190615967565b61098c565b6040516102b691906159af565b60405180910390f35b6102c76109ed565b6040516102d49190615a5a565b60405180910390f35b6102f760048036038101906102f29190615ab2565b610a7f565b6040516103049190615b20565b60405180910390f35b61032760048036038101906103229190615b67565b610a9b565b005b610343600480360381019061033e9190615bcc565b610ab1565b6040516103509190615c1b565b60405180910390f35b610373600480360381019061036e9190615c36565b610ad6565b60405161038091906159af565b60405180910390f35b6103a3600480360381019061039e9190615d98565b610af6565b005b6103bf60048036038101906103ba9190615e07565b610f9d565b005b6103db60048036038101906103d69190615e5a565b61109f565b6040516103e89190615c1b565b60405180910390f35b61040b60048036038101906104069190615e07565b6110d0565b005b61042760048036038101906104229190615e9a565b6110f0565b005b610443600480360381019061043e9190615c36565b6113a2565b6040516104509190615f89565b60405180910390f35b610473600480360381019061046e9190615fa4565b6113f8565b005b61048f600480360381019061048a9190615fe4565b61146b565b005b6104ab60048036038101906104a69190615ab2565b611ad0565b6040516104b89190615b20565b60405180910390f35b6104db60048036038101906104d69190615c36565b611ae2565b6040516104e89190615c1b565b60405180910390f35b6104f9611b9c565b005b61051560048036038101906105109190615e5a565b611bb0565b005b610531600480360381019061052c9190615bcc565b611ef6565b60405161053e91906159af565b60405180910390f35b610561600480360381019061055c9190615ab2565b611f25565b60405161056e9190615c1b565b60405180910390f35b610591600480360381019061058c9190616084565b611f3d565b005b6105ad60048036038101906105a89190615ab2565b6120d8565b6040516105ba919061623c565b60405180910390f35b6105cb612276565b6040516105d89190615b20565b60405180910390f35b6105fb60048036038101906105f69190615ab2565b6122a0565b60405161060891906159af565b60405180910390f35b610619612334565b6040516106269190615a5a565b60405180910390f35b61064960048036038101906106449190616294565b6123c6565b6040516106569190615b20565b60405180910390f35b61067960048036038101906106749190615c36565b61244a565b6040516106869190615f89565b60405180910390f35b6106a960048036038101906106a49190615c36565b61246a565b005b6106c560048036038101906106c09190615ab2565b612578565b6040516106d291906163fc565b60405180910390f35b6106f560048036038101906106f0919061644a565b612857565b005b610711600480360381019061070c9190615c36565b61286d565b60405161071e91906164df565b60405180910390f35b610741600480360381019061073c9190615ab2565b61290d565b60405161074e9190615c1b565b60405180910390f35b610771600480360381019061076c9190615fe4565b61292a565b005b61078d60048036038101906107889190615ab2565b6132d4565b6040516107a1989796959493929190616501565b60405180910390f35b6107c460048036038101906107bf9190615ab2565b613501565b6040516107d19190615c1b565b60405180910390f35b6107f460048036038101906107ef9190616635565b613519565b005b610810600480360381019061080b9190615ab2565b61353e565b005b61082c60048036038101906108279190615ab2565b613956565b005b61084860048036038101906108439190615ab2565b613a37565b6040516108559190615a5a565b60405180910390f35b610866613b4a565b6040516108739190615c1b565b60405180910390f35b61089660048036038101906108919190615ab2565b613b50565b6040516108a391906159af565b60405180910390f35b6108c660048036038101906108c19190615e5a565b613b70565b6040516108d79594939291906166b8565b60405180910390f35b6108fa60048036038101906108f59190615ab2565b613c1d565b60405161090791906159af565b60405180910390f35b61092a6004803603810190610925919061670b565b614117565b60405161093791906159af565b60405180910390f35b61095a60048036038101906109559190615ab2565b6141ab565b60405161096791906167fa565b60405180910390f35b61098a60048036038101906109859190615c36565b614216565b005b6000634906490660e01b7bffffffffffffffffffffffffffffffffffffffffffffffffffffffff1916827bffffffffffffffffffffffffffffffffffffffffffffffffffffffff191614806109e657506109e58261429c565b5b9050919050565b6060600080546109fc9061684b565b80601f0160208091040260200160405190810160405280929190818152602001828054610a289061684b565b8015610a755780601f10610a4a57610100808354040283529160200191610a75565b820191906000526020600020905b815481529060010190602001808311610a5857829003601f168201915b5050505050905090565b6000610a8a8261437e565b50610a9482614406565b9050919050565b610aad8282610aa8614443565b61444b565b5050565b6011602052816000526040600020602052806000526040600020600091509150505481565b600b6020528060005260406000206000915054906101000a900460ff1681565b600b60003373ffffffffffffffffffffffffffffffffffffffff1673ffffffffffffffffffffffffffffffffffffffff16815260200190815260200160002060009054906101000a900460ff16610b82576040517f08c379a0000000000000000000000000000000000000000000000000000000008152600401610b79906168ee565b60405180910390fd5b600073ffffffffffffffffffffffffffffffffffffffff16610ba38461445d565b73ffffffffffffffffffffffffffffffffffffffff1603610bf9576040517f08c379a0000000000000000000000000000000000000000000000000000000008152600401610bf09061695a565b60405180910390fd5b3373ffffffffffffffffffffffffffffffffffffffff166009600085815260200190815260200160002060060160009054906101000a900473ffffffffffffffffffffffffffffffffffffffff1673ffffffffffffffffffffffffffffffffffffffff1614610c9d576040517f08c379a0000000000000000000000000000000000000000000000000000000008152600401610c94906169ec565b60405180910390fd5b600082118015610caf57506103e88211155b610cee576040517f08c379a0000000000000000000000000000000000000000000000000000000008152600401610ce590616a58565b60405180910390fd5b60005b82811015610f9757600060086000815480929190610d0e90616aa7565b919050559050610d1e338261449a565b610d288184614593565b6040518061010001604052808281526020013373ffffffffffffffffffffffffffffffffffffffff16815260200160016004811115610d6a57610d69615f12565b5b815260200160096000888152602001908152602001600020600201610d8e846145ef565b604051602001610d9f929190616c0f565b60405160208183030381529060405281526020018481526020018481526020014281526020013373ffffffffffffffffffffffffffffffffffffffff16815250600960008381526020019081526020016000206000820151816000015560208201518160010160006101000a81548173ffffffffffffffffffffffffffffffffffffffff021916908373ffffffffffffffffffffffffffffffffffffffff16021790555060408201518160010160146101000a81548160ff02191690836004811115610e6e57610e6d615f12565b5b02179055506060820151816002019081610e889190616dd5565b506080820151816003019081610e9e9190616dd5565b5060a0820151816004019081610eb49190616dd5565b5060c0820151816005015560e08201518160060160006101000a81548173ffffffffffffffffffffffffffffffffffffffff021916908373ffffffffffffffffffffffffffffffffffffffff160217905550905050600e600086815260200190815260200160002081908060018154018082558091505060019003906000526020600020016000909190919091505584600f60008381526020019081526020016000208190555080857f491afba901d0e604bc0b8d87d55ecb79fda68b2af0545c27fd14a1e183c7bc1c60405160405180910390a3508080600101915050610cf1565b50505050565b600073ffffffffffffffffffffffffffffffffffffffff168273ffffffffffffffffffffffffffffffffffffffff160361100f5760006040517f64a0ae920000000000000000000000000000000000000000000000000000000081526004016110069190615b20565b60405180910390fd5b6000611023838361101e614443565b61474f565b90508373ffffffffffffffffffffffffffffffffffffffff168173ffffffffffffffffffffffffffffffffffffffff1614611099578382826040517f64283d7b00000000000000000000000000000000000000000000000000000000815260040161109093929190616ea7565b60405180910390fd5b50505050565b600e60205281600052604060002081815481106110bb57600080fd5b90600052602060002001600091509150505481565b6110eb83838360405180602001604052806000815250613519565b505050565b600b60003373ffffffffffffffffffffffffffffffffffffffff1673ffffffffffffffffffffffffffffffffffffffff16815260200190815260200160002060009054906101000a900460ff1661117c576040517f08c379a0000000000000000000000000000000000000000000000000000000008152600401611173906168ee565b60405180910390fd5b60006008600081548092919061119190616aa7565b9190505590506111a1338261449a565b6111ab8184614593565b6040518061010001604052808281526020013373ffffffffffffffffffffffffffffffffffffffff168152602001600160048111156111ed576111ec615f12565b5b81526020018381526020018481526020018481526020014281526020013373ffffffffffffffffffffffffffffffffffffffff16815250600960008381526020019081526020016000206000820151816000015560208201518160010160006101000a81548173ffffffffffffffffffffffffffffffffffffffff021916908373ffffffffffffffffffffffffffffffffffffffff16021790555060408201518160010160146101000a81548160ff021916908360048111156112b3576112b2615f12565b5b021790555060608201518160020190816112cd9190616dd5565b5060808201518160030190816112e39190616dd5565b5060a08201518160040190816112f99190616dd5565b5060c0820151816005015560e08201518160060160006101000a81548173ffffffffffffffffffffffffffffffffffffffff021916908373ffffffffffffffffffffffffffffffffffffffff1602179055509050503373ffffffffffffffffffffffffffffffffffffffff16817f3125f93d9d33796e9f4a99b590a10aedf12f9cc66116c76669599e8b26aad316846040516113959190615a5a565b60405180910390a3505050565b6000600a60008373ffffffffffffffffffffffffffffffffffffffff1673ffffffffffffffffffffffffffffffffffffffff16815260200190815260200160002060009054906101000a900460ff169050919050565b611400614969565b80600a60008473ffffffffffffffffffffffffffffffffffffffff1673ffffffffffffffffffffffffffffffffffffffff16815260200190815260200160002060006101000a81548160ff0219169083600481111561146257611461615f12565b5b02179055505050565b600073ffffffffffffffffffffffffffffffffffffffff1661148c8361445d565b73ffffffffffffffffffffffffffffffffffffffff16036114e2576040517f08c379a00000000000000000000000000000000000000000000000000000000081526004016114d990616f2a565b60405180910390fd5b3373ffffffffffffffffffffffffffffffffffffffff1661150283611ad0565b73ffffffffffffffffffffffffffffffffffffffff1614611558576040517f08c379a000000000000000000000000000000000000000000000000000000000815260040161154f90616f96565b60405180910390fd5b60006009600084815260200190815260200160002060010160149054906101000a900460ff1690506000600a60008473ffffffffffffffffffffffffffffffffffffffff1673ffffffffffffffffffffffffffffffffffffffff16815260200190815260200160002060009054906101000a900460ff169050600160048111156115e5576115e4615f12565b5b8260048111156115f8576115f7615f12565b5b14801561165857506002600481111561161457611613615f12565b5b81600481111561162757611626615f12565b5b148061165757506003600481111561164257611641615f12565b5b81600481111561165557611654615f12565b5b145b5b806116b757506002600481111561167257611671615f12565b5b82600481111561168557611684615f12565b5b1480156116b65750600360048111156116a1576116a0615f12565b5b8160048111156116b4576116b3615f12565b5b145b5b6116f6576040517f08c379a00000000000000000000000000000000000000000000000000000000081526004016116ed90617002565b60405180910390fd5b6013600085815260200190815260200160002060009054906101000a900460ff1615611757576040517f08c379a000000000000000000000000000000000000000000000000000000000815260040161174e9061706e565b60405180910390fd5b6001600481111561176b5761176a615f12565b5b82600481111561177e5761177d615f12565b5b14611819576010600085815260200190815260200160002060008360048111156117ab576117aa615f12565b5b60048111156117bd576117bc615f12565b5b815260200190815260200160002060009054906101000a900460ff16611818576040517f08c379a000000000000000000000000000000000000000000000000000000000815260040161180f906170da565b60405180910390fd5b5b600d60008581526020019081526020016000206040518060a001604052803373ffffffffffffffffffffffffffffffffffffffff1681526020018573ffffffffffffffffffffffffffffffffffffffff16815260200142815260200184600481111561188857611887615f12565b5b81526020018360048111156118a05761189f615f12565b5b815250908060018154018082558091505060019003906000526020600020906004020160009091909190915060008201518160000160006101000a81548173ffffffffffffffffffffffffffffffffffffffff021916908373ffffffffffffffffffffffffffffffffffffffff16021790555060208201518160010160006101000a81548173ffffffffffffffffffffffffffffffffffffffff021916908373ffffffffffffffffffffffffffffffffffffffff1602179055506040820151816002015560608201518160030160006101000a81548160ff0219169083600481111561198f5761198e615f12565b5b021790555060808201518160030160016101000a81548160ff021916908360048111156119bf576119be615f12565b5b021790555050506119d13384866149f0565b826009600086815260200190815260200160002060010160006101000a81548173ffffffffffffffffffffffffffffffffffffffff021916908373ffffffffffffffffffffffffffffffffffffffff160217905550806009600086815260200190815260200160002060010160146101000a81548160ff02191690836004811115611a5f57611a5e615f12565b5b02179055508273ffffffffffffffffffffffffffffffffffffffff163373ffffffffffffffffffffffffffffffffffffffff16857f0d9d3ad1299833596bec6138aae47314cbb71fb92c7582abed06e22840593ad484604051611ac29190615f89565b60405180910390a450505050565b6000611adb8261437e565b9050919050565b60008073ffffffffffffffffffffffffffffffffffffffff168273ffffffffffffffffffffffffffffffffffffffff1603611b555760006040517f89c62b64000000000000000000000000000000000000000000000000000000008152600401611b4c9190615b20565b60405180910390fd5b600360008373ffffffffffffffffffffffffffffffffffffffff1673ffffffffffffffffffffffffffffffffffffffff168152602001908152602001600020549050919050565b611ba4614969565b611bae6000614b5d565b565b600b60003373ffffffffffffffffffffffffffffffffffffffff1673ffffffffffffffffffffffffffffffffffffffff16815260200190815260200160002060009054906101000a900460ff16611c3c576040517f08c379a0000000000000000000000000000000000000000000000000000000008152600401611c33906168ee565b60405180910390fd5b600073ffffffffffffffffffffffffffffffffffffffff16611c5d8361445d565b73ffffffffffffffffffffffffffffffffffffffff1603611cb3576040517f08c379a0000000000000000000000000000000000000000000000000000000008152600401611caa9061695a565b60405180910390fd5b600073ffffffffffffffffffffffffffffffffffffffff16611cd48261445d565b73ffffffffffffffffffffffffffffffffffffffff1603611d2a576040517f08c379a0000000000000000000000000000000000000000000000000000000008152600401611d2190617146565b60405180910390fd5b3373ffffffffffffffffffffffffffffffffffffffff166009600084815260200190815260200160002060060160009054906101000a900473ffffffffffffffffffffffffffffffffffffffff1673ffffffffffffffffffffffffffffffffffffffff1614611dce576040517f08c379a0000000000000000000000000000000000000000000000000000000008152600401611dc5906169ec565b60405180910390fd5b3373ffffffffffffffffffffffffffffffffffffffff166009600083815260200190815260200160002060060160009054906101000a900473ffffffffffffffffffffffffffffffffffffffff1673ffffffffffffffffffffffffffffffffffffffff1614611e72576040517f08c379a0000000000000000000000000000000000000000000000000000000008152600401611e69906171d8565b60405180910390fd5b600e600083815260200190815260200160002081908060018154018082558091505060019003906000526020600020016000909190919091505581600f60008381526020019081526020016000208190555080827f491afba901d0e604bc0b8d87d55ecb79fda68b2af0545c27fd14a1e183c7bc1c60405160405180910390a35050565b60106020528160005260406000206020528060005260406000206000915091509054906101000a900460ff1681565b600f6020528060005260406000206000915090505481565b611f45614969565b82600a60008673ffffffffffffffffffffffffffffffffffffffff1673ffffffffffffffffffffffffffffffffffffffff16815260200190815260200160002060006101000a81548160ff02191690836004811115611fa757611fa6615f12565b5b02179055508181600c60008773ffffffffffffffffffffffffffffffffffffffff1673ffffffffffffffffffffffffffffffffffffffff1681526020019081526020016000209182611ffa92919061725e565b506001600481111561200f5761200e615f12565b5b83600481111561202257612021615f12565b5b03612080576001600b60008673ffffffffffffffffffffffffffffffffffffffff1673ffffffffffffffffffffffffffffffffffffffff16815260200190815260200160002060006101000a81548160ff0219169083151502179055505b8373ffffffffffffffffffffffffffffffffffffffff167f063fc6e41e7fbc2f6cbd06fae3995d0c8e66fbd82ef2ea6f048c2b6a78dfe8348484846040516120ca9392919061735b565b60405180910390a250505050565b6060600d6000838152602001908152602001600020805480602002602001604051908101604052809291908181526020016000905b8282101561226b57838290600052602060002090600402016040518060a00160405290816000820160009054906101000a900473ffffffffffffffffffffffffffffffffffffffff1673ffffffffffffffffffffffffffffffffffffffff1673ffffffffffffffffffffffffffffffffffffffff1681526020016001820160009054906101000a900473ffffffffffffffffffffffffffffffffffffffff1673ffffffffffffffffffffffffffffffffffffffff1673ffffffffffffffffffffffffffffffffffffffff168152602001600282015481526020016003820160009054906101000a900460ff16600481111561220b5761220a615f12565b5b600481111561221d5761221c615f12565b5b81526020016003820160019054906101000a900460ff16600481111561224657612245615f12565b5b600481111561225857612257615f12565b5b815250508152602001906001019061210d565b505050509050919050565b6000600760009054906101000a900473ffffffffffffffffffffffffffffffffffffffff16905090565b6000808290505b6000811461232957600073ffffffffffffffffffffffffffffffffffffffff166122d08261445d565b73ffffffffffffffffffffffffffffffffffffffff16036122f557600091505061232f565b6000600f6000838152602001908152602001600020549050600081036123205760019250505061232f565b809150506122a7565b60019150505b919050565b6060600180546123439061684b565b80601f016020809104026020016040519081016040528092919081815260200182805461236f9061684b565b80156123bc5780601f10612391576101008083540402835291602001916123bc565b820191906000526020600020905b81548152906001019060200180831161239f57829003601f168201915b5050505050905090565b600080846040516020016123da91906173fa565b6040516020818303038152906040528051906020012090506124408185858080601f016020809104026020016040519081016040528093929190818152602001838380828437600081840152601f19601f82011690508083019250505050505050614c23565b9150509392505050565b600a6020528060005260406000206000915054906101000a900460ff1681565b612472614969565b6001600b60008373ffffffffffffffffffffffffffffffffffffffff1673ffffffffffffffffffffffffffffffffffffffff16815260200190815260200160002060006101000a81548160ff0219169083151502179055506001600a60008373ffffffffffffffffffffffffffffffffffffffff1673ffffffffffffffffffffffffffffffffffffffff16815260200190815260200160002060006101000a81548160ff0219169083600481111561252d5761252c615f12565b5b02179055508073ffffffffffffffffffffffffffffffffffffffff167fa02022e57eb2e7ae40c00a3b394bec5819680c1ce2bf125655fb6d98dffdb8df60405160405180910390a250565b612580615878565b6009600083815260200190815260200160002060405180610100016040529081600082015481526020016001820160009054906101000a900473ffffffffffffffffffffffffffffffffffffffff1673ffffffffffffffffffffffffffffffffffffffff1673ffffffffffffffffffffffffffffffffffffffff1681526020016001820160149054906101000a900460ff16600481111561262457612623615f12565b5b600481111561263657612635615f12565b5b815260200160028201805461264a9061684b565b80601f01602080910402602001604051908101604052809291908181526020018280546126769061684b565b80156126c35780601f10612698576101008083540402835291602001916126c3565b820191906000526020600020905b8154815290600101906020018083116126a657829003601f168201915b505050505081526020016003820180546126dc9061684b565b80601f01602080910402602001604051908101604052809291908181526020018280546127089061684b565b80156127555780601f1061272a57610100808354040283529160200191612755565b820191906000526020600020905b81548152906001019060200180831161273857829003601f168201915b5050505050815260200160048201805461276e9061684b565b80601f016020809104026020016040519081016040528092919081815260200182805461279a9061684b565b80156127e75780601f106127bc576101008083540402835291602001916127e7565b820191906000526020600020905b8154815290600101906020018083116127ca57829003601f168201915b50505050508152602001600582015481526020016006820160009054906101000a900473ffffffffffffffffffffffffffffffffffffffff1673ffffffffffffffffffffffffffffffffffffffff1673ffffffffffffffffffffffffffffffffffffffff16815250509050919050565b612869612862614443565b8383614c4f565b5050565b600c602052806000526040600020600091509050805461288c9061684b565b80601f01602080910402602001604051908101604052809291908181526020018280546128b89061684b565b80156129055780601f106128da57610100808354040283529160200191612905565b820191906000526020600020905b8154815290600101906020018083116128e857829003601f168201915b505050505081565b6000600f6000838152602001908152602001600020549050919050565b600073ffffffffffffffffffffffffffffffffffffffff1661294b8361445d565b73ffffffffffffffffffffffffffffffffffffffff16036129a1576040517f08c379a00000000000000000000000000000000000000000000000000000000081526004016129989061695a565b60405180910390fd5b3373ffffffffffffffffffffffffffffffffffffffff166129c183611ad0565b73ffffffffffffffffffffffffffffffffffffffff1614612a17576040517f08c379a0000000000000000000000000000000000000000000000000000000008152600401612a0e9061746c565b60405180910390fd5b60006009600084815260200190815260200160002060010160149054906101000a900460ff1690506000600a60008473ffffffffffffffffffffffffffffffffffffffff1673ffffffffffffffffffffffffffffffffffffffff16815260200190815260200160002060009054906101000a900460ff16905060016004811115612aa457612aa3615f12565b5b826004811115612ab757612ab6615f12565b5b148015612b17575060026004811115612ad357612ad2615f12565b5b816004811115612ae657612ae5615f12565b5b1480612b16575060036004811115612b0157612b00615f12565b5b816004811115612b1457612b13615f12565b5b145b5b80612b76575060026004811115612b3157612b30615f12565b5b826004811115612b4457612b43615f12565b5b148015612b75575060036004811115612b6057612b5f615f12565b5b816004811115612b7357612b72615f12565b5b145b5b612bb5576040517f08c379a0000000000000000000000000000000000000000000000000000000008152600401612bac90617002565b60405180910390fd5b6013600085815260200190815260200160002060009054906101000a900460ff1615612c16576040517f08c379a0000000000000000000000000000000000000000000000000000000008152600401612c0d9061706e565b60405180910390fd5b60016004811115612c2a57612c29615f12565b5b826004811115612c3d57612c3c615f12565b5b14612cd857601060008581526020019081526020016000206000836004811115612c6a57612c69615f12565b5b6004811115612c7c57612c7b615f12565b5b815260200190815260200160002060009054906101000a900460ff16612cd7576040517f08c379a0000000000000000000000000000000000000000000000000000000008152600401612cce906170da565b60405180910390fd5b5b600d60008581526020019081526020016000206040518060a001604052803373ffffffffffffffffffffffffffffffffffffffff1681526020018573ffffffffffffffffffffffffffffffffffffffff168152602001428152602001846004811115612d4757612d46615f12565b5b8152602001836004811115612d5f57612d5e615f12565b5b815250908060018154018082558091505060019003906000526020600020906004020160009091909190915060008201518160000160006101000a81548173ffffffffffffffffffffffffffffffffffffffff021916908373ffffffffffffffffffffffffffffffffffffffff16021790555060208201518160010160006101000a81548173ffffffffffffffffffffffffffffffffffffffff021916908373ffffffffffffffffffffffffffffffffffffffff1602179055506040820151816002015560608201518160030160006101000a81548160ff02191690836004811115612e4e57612e4d615f12565b5b021790555060808201518160030160016101000a81548160ff02191690836004811115612e7e57612e7d615f12565b5b02179055505050612e903384866149f0565b826009600086815260200190815260200160002060010160006101000a81548173ffffffffffffffffffffffffffffffffffffffff021916908373ffffffffffffffffffffffffffffffffffffffff160217905550806009600086815260200190815260200160002060010160146101000a81548160ff02191690836004811115612f1e57612f1d615f12565b5b02179055508273ffffffffffffffffffffffffffffffffffffffff163373ffffffffffffffffffffffffffffffffffffffff16857f0d9d3ad1299833596bec6138aae47314cbb71fb92c7582abed06e22840593ad484604051612f819190615f89565b60405180910390a46000600e6000868152602001908152602001600020905060005b81805490508110156132cc576000828281548110612fc457612fc361748c565b5b906000526020600020015490503373ffffffffffffffffffffffffffffffffffffffff16612ff18261445d565b73ffffffffffffffffffffffffffffffffffffffff16036132be57600d60008281526020019081526020016000206040518060a001604052803373ffffffffffffffffffffffffffffffffffffffff1681526020018873ffffffffffffffffffffffffffffffffffffffff16815260200142815260200187600481111561307b5761307a615f12565b5b815260200186600481111561309357613092615f12565b5b815250908060018154018082558091505060019003906000526020600020906004020160009091909190915060008201518160000160006101000a81548173ffffffffffffffffffffffffffffffffffffffff021916908373ffffffffffffffffffffffffffffffffffffffff16021790555060208201518160010160006101000a81548173ffffffffffffffffffffffffffffffffffffffff021916908373ffffffffffffffffffffffffffffffffffffffff1602179055506040820151816002015560608201518160030160006101000a81548160ff0219169083600481111561318257613181615f12565b5b021790555060808201518160030160016101000a81548160ff021916908360048111156131b2576131b1615f12565b5b021790555050506131c43387836149f0565b856009600083815260200190815260200160002060010160006101000a81548173ffffffffffffffffffffffffffffffffffffffff021916908373ffffffffffffffffffffffffffffffffffffffff160217905550836009600083815260200190815260200160002060010160146101000a81548160ff0219169083600481111561325257613251615f12565b5b02179055508573ffffffffffffffffffffffffffffffffffffffff163373ffffffffffffffffffffffffffffffffffffffff16827f0d9d3ad1299833596bec6138aae47314cbb71fb92c7582abed06e22840593ad4876040516132b59190615f89565b60405180910390a45b508080600101915050612fa3565b505050505050565b60096020528060005260406000206000915090508060000154908060010160009054906101000a900473ffffffffffffffffffffffffffffffffffffffff16908060010160149054906101000a900460ff16908060020180546133369061684b565b80601f01602080910402602001604051908101604052809291908181526020018280546133629061684b565b80156133af5780601f10613384576101008083540402835291602001916133af565b820191906000526020600020905b81548152906001019060200180831161339257829003601f168201915b5050505050908060030180546133c49061684b565b80601f01602080910402602001604051908101604052809291908181526020018280546133f09061684b565b801561343d5780601f106134125761010080835404028352916020019161343d565b820191906000526020600020905b81548152906001019060200180831161342057829003601f168201915b5050505050908060040180546134529061684b565b80601f016020809104026020016040519081016040528092919081815260200182805461347e9061684b565b80156134cb5780601f106134a0576101008083540402835291602001916134cb565b820191906000526020600020905b8154815290600101906020018083116134ae57829003601f168201915b5050505050908060050154908060060160009054906101000a900473ffffffffffffffffffffffffffffffffffffffff16905088565b60126020528060005260406000206000915090505481565b613524848484610f9d565b61353861352f614443565b85858585614dbe565b50505050565b600073ffffffffffffffffffffffffffffffffffffffff1661355f8261445d565b73ffffffffffffffffffffffffffffffffffffffff16036135b5576040517f08c379a00000000000000000000000000000000000000000000000000000000081526004016135ac90616f2a565b60405180910390fd5b6000600a60003373ffffffffffffffffffffffffffffffffffffffff1673ffffffffffffffffffffffffffffffffffffffff16815260200190815260200160002060009054906101000a900460ff1690506001600481111561361a57613619615f12565b5b81600481111561362d5761362c615f12565b5b148061365d57506002600481111561364857613647615f12565b5b81600481111561365b5761365a615f12565b5b145b8061368c57506003600481111561367757613676615f12565b5b81600481111561368a57613689615f12565b5b145b6136cb576040517f08c379a00000000000000000000000000000000000000000000000000000000081526004016136c290617507565b60405180910390fd5b6009600083815260200190815260200160002060010160149054906101000a900460ff16600481111561370157613700615f12565b5b81600481111561371457613713615f12565b5b146137805760016013600084815260200190815260200160002060006101000a81548160ff0219169083151502179055506040517f08c379a000000000000000000000000000000000000000000000000000000000815260040161377790617573565b60405180910390fd5b6010600083815260200190815260200160002060008260048111156137a8576137a7615f12565b5b60048111156137ba576137b9615f12565b5b815260200190815260200160002060009054906101000a900460ff16156138425760016013600084815260200190815260200160002060006101000a81548160ff0219169083151502179055506040517f08c379a0000000000000000000000000000000000000000000000000000000008152600401613839906175df565b60405180910390fd5b600160106000848152602001908152602001600020600083600481111561386c5761386b615f12565b5b600481111561387e5761387d615f12565b5b815260200190815260200160002060006101000a81548160ff021916908315150217905550426011600084815260200190815260200160002060008360048111156138cc576138cb615f12565b5b60048111156138de576138dd615f12565b5b8152602001908152602001600020819055503373ffffffffffffffffffffffffffffffffffffffff1681600481111561391a57613919615f12565b5b837f1f7eecd27624ef319337ceae543448cb48ff380a247d09accab02c862b3dedd94260405161394a9190615c1b565b60405180910390a45050565b600073ffffffffffffffffffffffffffffffffffffffff166139778261445d565b73ffffffffffffffffffffffffffffffffffffffff16036139cd576040517f08c379a00000000000000000000000000000000000000000000000000000000081526004016139c490617146565b60405180910390fd5b4260126000838152602001908152602001600020819055503373ffffffffffffffffffffffffffffffffffffffff16817f7fdabc36dcf9f8cce54bfdbded32259e2aadde706d84d3e6ab5f0b420412392042604051613a2c9190615c1b565b60405180910390a350565b6060613a428261437e565b506000600660008481526020019081526020016000208054613a639061684b565b80601f0160208091040260200160405190810160405280929190818152602001828054613a8f9061684b565b8015613adc5780601f10613ab157610100808354040283529160200191613adc565b820191906000526020600020905b815481529060010190602001808311613abf57829003601f168201915b505050505090506000613aed614f6f565b90506000815103613b02578192505050613b45565b600082511115613b37578082604051602001613b1f9291906175ff565b60405160208183030381529060405292505050613b45565b613b4084614f86565b925050505b919050565b60085481565b60136020528060005260406000206000915054906101000a900460ff1681565b600d6020528160005260406000208181548110613b8c57600080fd5b9060005260206000209060040201600091509150508060000160009054906101000a900473ffffffffffffffffffffffffffffffffffffffff16908060010160009054906101000a900473ffffffffffffffffffffffffffffffffffffffff16908060020154908060030160009054906101000a900460ff16908060030160019054906101000a900460ff16905085565b60008073ffffffffffffffffffffffffffffffffffffffff16613c3f8361445d565b73ffffffffffffffffffffffffffffffffffffffff1603613c95576040517f08c379a0000000000000000000000000000000000000000000000000000000008152600401613c8c90616f2a565b60405180910390fd5b6000600a60003373ffffffffffffffffffffffffffffffffffffffff1673ffffffffffffffffffffffffffffffffffffffff16815260200190815260200160002060009054906101000a900460ff16905060026004811115613cfa57613cf9615f12565b5b816004811115613d0d57613d0c615f12565b5b1480613d3d575060036004811115613d2857613d27615f12565b5b816004811115613d3b57613d3a615f12565b5b145b80613d6b5750600480811115613d5657613d55615f12565b5b816004811115613d6957613d68615f12565b5b145b613daa576040517f08c379a0000000000000000000000000000000000000000000000000000000008152600401613da19061766f565b60405180910390fd5b60006009600085815260200190815260200160002060405180610100016040529081600082015481526020016001820160009054906101000a900473ffffffffffffffffffffffffffffffffffffffff1673ffffffffffffffffffffffffffffffffffffffff1673ffffffffffffffffffffffffffffffffffffffff1681526020016001820160149054906101000a900460ff166004811115613e5057613e4f615f12565b5b6004811115613e6257613e61615f12565b5b8152602001600282018054613e769061684b565b80601f0160208091040260200160405190810160405280929190818152602001828054613ea29061684b565b8015613eef5780601f10613ec457610100808354040283529160200191613eef565b820191906000526020600020905b815481529060010190602001808311613ed257829003601f168201915b50505050508152602001600382018054613f089061684b565b80601f0160208091040260200160405190810160405280929190818152602001828054613f349061684b565b8015613f815780601f10613f5657610100808354040283529160200191613f81565b820191906000526020600020905b815481529060010190602001808311613f6457829003601f168201915b50505050508152602001600482018054613f9a9061684b565b80601f0160208091040260200160405190810160405280929190818152602001828054613fc69061684b565b80156140135780601f10613fe857610100808354040283529160200191614013565b820191906000526020600020905b815481529060010190602001808311613ff657829003601f168201915b50505050508152602001600582015481526020016006820160009054906101000a900473ffffffffffffffffffffffffffffffffffffffff1673ffffffffffffffffffffffffffffffffffffffff1673ffffffffffffffffffffffffffffffffffffffff168152505090506000816020015173ffffffffffffffffffffffffffffffffffffffff166140a486611ad0565b73ffffffffffffffffffffffffffffffffffffffff161490503373ffffffffffffffffffffffffffffffffffffffff16857fd7a7432b95a44d2a173bc80366208ab2e074f0ceada55c11f115d7eb32e8e6d08360405161410491906159af565b60405180910390a3809350505050919050565b6000600560008473ffffffffffffffffffffffffffffffffffffffff1673ffffffffffffffffffffffffffffffffffffffff16815260200190815260200160002060008373ffffffffffffffffffffffffffffffffffffffff1673ffffffffffffffffffffffffffffffffffffffff16815260200190815260200160002060009054906101000a900460ff16905092915050565b6060600e600083815260200190815260200160002080548060200260200160405190810160405280929190818152602001828054801561420a57602002820191906000526020600020905b8154815260200190600101908083116141f6575b50505050509050919050565b61421e614969565b600073ffffffffffffffffffffffffffffffffffffffff168173ffffffffffffffffffffffffffffffffffffffff16036142905760006040517f1e4fbdf70000000000000000000000000000000000000000000000000000000081526004016142879190615b20565b60405180910390fd5b61429981614b5d565b50565b60007f80ac58cd000000000000000000000000000000000000000000000000000000007bffffffffffffffffffffffffffffffffffffffffffffffffffffffff1916827bffffffffffffffffffffffffffffffffffffffffffffffffffffffff1916148061436757507f5b5e139f000000000000000000000000000000000000000000000000000000007bffffffffffffffffffffffffffffffffffffffffffffffffffffffff1916827bffffffffffffffffffffffffffffffffffffffffffffffffffffffff1916145b80614377575061437682614fef565b5b9050919050565b60008061438a8361445d565b9050600073ffffffffffffffffffffffffffffffffffffffff168173ffffffffffffffffffffffffffffffffffffffff16036143fd57826040517f7e2732890000000000000000000000000000000000000000000000000000000081526004016143f49190615c1b565b60405180910390fd5b80915050919050565b60006004600083815260200190815260200160002060009054906101000a900473ffffffffffffffffffffffffffffffffffffffff169050919050565b600033905090565b6144588383836001615059565b505050565b60006002600083815260200190815260200160002060009054906101000a900473ffffffffffffffffffffffffffffffffffffffff169050919050565b600073ffffffffffffffffffffffffffffffffffffffff168273ffffffffffffffffffffffffffffffffffffffff160361450c5760006040517f64a0ae920000000000000000000000000000000000000000000000000000000081526004016145039190615b20565b60405180910390fd5b600061451a8383600061474f565b9050600073ffffffffffffffffffffffffffffffffffffffff168173ffffffffffffffffffffffffffffffffffffffff161461458e5760006040517f73c6ac6e0000000000000000000000000000000000000000000000000000000081526004016145859190615b20565b60405180910390fd5b505050565b806006600084815260200190815260200160002090816145b39190616dd5565b507ff8e1a15aba9398e019f0b49df1a4fde98ee17ae345cb5f6b5e2c27f5033e8ce7826040516145e39190615c1b565b60405180910390a15050565b606060008203614636576040518060400160405280600181526020017f3000000000000000000000000000000000000000000000000000000000000000815250905061474a565b600082905060005b6000821461466857808061465190616aa7565b915050600a8261466191906176be565b915061463e565b60008167ffffffffffffffff81111561468457614683615c6d565b5b6040519080825280601f01601f1916602001820160405280156146b65781602001600182028036833780820191505090505b5090505b60008514614743576001826146cf91906176ef565b9150600a856146de9190617723565b60306146ea9190617754565b60f81b818381518110614700576146ff61748c565b5b60200101907effffffffffffffffffffffffffffffffffffffffffffffffffffffffffffff1916908160001a905350600a8561473c91906176be565b94506146ba565b8093505050505b919050565b60008061475b8461445d565b9050600073ffffffffffffffffffffffffffffffffffffffff168373ffffffffffffffffffffffffffffffffffffffff161461479d5761479c81848661521e565b5b600073ffffffffffffffffffffffffffffffffffffffff168173ffffffffffffffffffffffffffffffffffffffff161461482e576147df600085600080615059565b6001600360008373ffffffffffffffffffffffffffffffffffffffff1673ffffffffffffffffffffffffffffffffffffffff168152602001908152602001600020600082825403925050819055505b600073ffffffffffffffffffffffffffffffffffffffff168573ffffffffffffffffffffffffffffffffffffffff16146148b1576001600360008773ffffffffffffffffffffffffffffffffffffffff1673ffffffffffffffffffffffffffffffffffffffff168152602001908152602001600020600082825401925050819055505b846002600086815260200190815260200160002060006101000a81548173ffffffffffffffffffffffffffffffffffffffff021916908373ffffffffffffffffffffffffffffffffffffffff160217905550838573ffffffffffffffffffffffffffffffffffffffff168273ffffffffffffffffffffffffffffffffffffffff167fddf252ad1be2c89b69c2b068fc378daa952ba7f163c4a11628f55a4df523b3ef60405160405180910390a4809150509392505050565b614971614443565b73ffffffffffffffffffffffffffffffffffffffff1661498f612276565b73ffffffffffffffffffffffffffffffffffffffff16146149ee576149b2614443565b6040517f118cdaa70000000000000000000000000000000000000000000000000000000081526004016149e59190615b20565b60405180910390fd5b565b600073ffffffffffffffffffffffffffffffffffffffff168273ffffffffffffffffffffffffffffffffffffffff1603614a625760006040517f64a0ae92000000000000000000000000000000000000000000000000000000008152600401614a599190615b20565b60405180910390fd5b6000614a708383600061474f565b9050600073ffffffffffffffffffffffffffffffffffffffff168173ffffffffffffffffffffffffffffffffffffffff1603614ae357816040517f7e273289000000000000000000000000000000000000000000000000000000008152600401614ada9190615c1b565b60405180910390fd5b8373ffffffffffffffffffffffffffffffffffffffff168173ffffffffffffffffffffffffffffffffffffffff1614614b57578382826040517f64283d7b000000000000000000000000000000000000000000000000000000008152600401614b4e93929190616ea7565b60405180910390fd5b50505050565b6000600760009054906101000a900473ffffffffffffffffffffffffffffffffffffffff16905081600760006101000a81548173ffffffffffffffffffffffffffffffffffffffff021916908373ffffffffffffffffffffffffffffffffffffffff1602179055508173ffffffffffffffffffffffffffffffffffffffff168173ffffffffffffffffffffffffffffffffffffffff167f8be0079c531659141344cd1fd0a4f28419497f9722a3daafe3b4186f6b6457e060405160405180910390a35050565b600080600080614c3386866152e2565b925092509250614c43828261533e565b82935050505092915050565b600073ffffffffffffffffffffffffffffffffffffffff168273ffffffffffffffffffffffffffffffffffffffff1603614cc057816040517f5b08ba18000000000000000000000000000000000000000000000000000000008152600401614cb79190615b20565b60405180910390fd5b80600560008573ffffffffffffffffffffffffffffffffffffffff1673ffffffffffffffffffffffffffffffffffffffff16815260200190815260200160002060008473ffffffffffffffffffffffffffffffffffffffff1673ffffffffffffffffffffffffffffffffffffffff16815260200190815260200160002060006101000a81548160ff0219169083151502179055508173ffffffffffffffffffffffffffffffffffffffff168373ffffffffffffffffffffffffffffffffffffffff167f17307eab39ab6107e8899845ad3d59bd9653f200f220920489ca2b5937696c3183604051614db191906159af565b60405180910390a3505050565b60008373ffffffffffffffffffffffffffffffffffffffff163b1115614f68578273ffffffffffffffffffffffffffffffffffffffff1663150b7a02868685856040518563ffffffff1660e01b8152600401614e1d9493929190617788565b6020604051808303816000875af1925050508015614e5957506040513d601f19601f82011682018060405250810190614e5691906177e9565b60015b614edd573d8060008114614e89576040519150601f19603f3d011682016040523d82523d6000602084013e614e8e565b606091505b506000815103614ed557836040517f64a0ae92000000000000000000000000000000000000000000000000000000008152600401614ecc9190615b20565b60405180910390fd5b805160208201fd5b63150b7a0260e01b7bffffffffffffffffffffffffffffffffffffffffffffffffffffffff1916817bffffffffffffffffffffffffffffffffffffffffffffffffffffffff191614614f6657836040517f64a0ae92000000000000000000000000000000000000000000000000000000008152600401614f5d9190615b20565b60405180910390fd5b505b5050505050565b606060405180602001604052806000815250905090565b6060614f918261437e565b506000614f9c614f6f565b90506000815111614fbc5760405180602001604052806000815250614fe7565b80614fc6846154a2565b604051602001614fd79291906175ff565b6040516020818303038152906040525b915050919050565b60007f01ffc9a7000000000000000000000000000000000000000000000000000000007bffffffffffffffffffffffffffffffffffffffffffffffffffffffff1916827bffffffffffffffffffffffffffffffffffffffffffffffffffffffff1916149050919050565b80806150925750600073ffffffffffffffffffffffffffffffffffffffff168273ffffffffffffffffffffffffffffffffffffffff1614155b156151c65760006150a28461437e565b9050600073ffffffffffffffffffffffffffffffffffffffff168373ffffffffffffffffffffffffffffffffffffffff161415801561510d57508273ffffffffffffffffffffffffffffffffffffffff168173ffffffffffffffffffffffffffffffffffffffff1614155b8015615120575061511e8184614117565b155b1561516257826040517fa9fbf51f0000000000000000000000000000000000000000000000000000000081526004016151599190615b20565b60405180910390fd5b81156151c457838573ffffffffffffffffffffffffffffffffffffffff168273ffffffffffffffffffffffffffffffffffffffff167f8c5be1e5ebec7d5bd14f71427d1e84f3dd0314c0f7b2291e5b200ac8c7c3b92560405160405180910390a45b505b836004600085815260200190815260200160002060006101000a81548173ffffffffffffffffffffffffffffffffffffffff021916908373ffffffffffffffffffffffffffffffffffffffff16021790555050505050565b615229838383615570565b6152dd57600073ffffffffffffffffffffffffffffffffffffffff168373ffffffffffffffffffffffffffffffffffffffff160361529e57806040517f7e2732890000000000000000000000000000000000000000000000000000000081526004016152959190615c1b565b60405180910390fd5b81816040517f177e802f0000000000000000000000000000000000000000000000000000000081526004016152d4929190617816565b60405180910390fd5b505050565b600080600060418451036153275760008060006020870151925060408701519150606087015160001a905061531988828585615631565b955095509550505050615337565b60006002855160001b9250925092505b9250925092565b6000600381111561535257615351615f12565b5b82600381111561536557615364615f12565b5b031561549e576001600381111561537f5761537e615f12565b5b82600381111561539257615391615f12565b5b036153c9576040517ff645eedf00000000000000000000000000000000000000000000000000000000815260040160405180910390fd5b600260038111156153dd576153dc615f12565b5b8260038111156153f0576153ef615f12565b5b03615435578060001c6040517ffce698f700000000000000000000000000000000000000000000000000000000815260040161542c9190615c1b565b60405180910390fd5b60038081111561544857615447615f12565b5b82600381111561545b5761545a615f12565b5b0361549d57806040517fd78bce0c000000000000000000000000000000000000000000000000000000008152600401615494919061784e565b60405180910390fd5b5b5050565b6060600060016154b184615725565b01905060008167ffffffffffffffff8111156154d0576154cf615c6d565b5b6040519080825280601f01601f1916602001820160405280156155025781602001600182028036833780820191505090505b509050600082602083010190505b600115615565578080600190039150507f3031323334353637383961626364656600000000000000000000000000000000600a86061a8153600a85816155595761555861768f565b5b04945060008503615510575b819350505050919050565b60008073ffffffffffffffffffffffffffffffffffffffff168373ffffffffffffffffffffffffffffffffffffffff161415801561562857508273ffffffffffffffffffffffffffffffffffffffff168473ffffffffffffffffffffffffffffffffffffffff1614806155e957506155e88484614117565b5b8061562757508273ffffffffffffffffffffffffffffffffffffffff1661560f83614406565b73ffffffffffffffffffffffffffffffffffffffff16145b5b90509392505050565b60008060007f7fffffffffffffffffffffffffffffff5d576e7357a4501ddfe92f46681b20a08460001c111561567157600060038592509250925061571b565b6000600188888888604051600081526020016040526040516156969493929190617885565b6020604051602081039080840390855afa1580156156b8573d6000803e3d6000fd5b505050602060405103519050600073ffffffffffffffffffffffffffffffffffffffff168173ffffffffffffffffffffffffffffffffffffffff160361570c57600060016000801b9350935093505061571b565b8060008060001b935093509350505b9450945094915050565b600080600090507a184f03e93ff9f4daa797ed6e38ed64bf6a1f0100000000000000008310615783577a184f03e93ff9f4daa797ed6e38ed64bf6a1f01000000000000000083816157795761577861768f565b5b0492506040810190505b6d04ee2d6d415b85acef810000000083106157c0576d04ee2d6d415b85acef810000000083816157b6576157b561768f565b5b0492506020810190505b662386f26fc1000083106157ef57662386f26fc1000083816157e5576157e461768f565b5b0492506010810190505b6305f5e1008310615818576305f5e100838161580e5761580d61768f565b5b0492506008810190505b612710831061583d5761271083816158335761583261768f565b5b0492506004810190505b6064831061586057606483816158565761585561768f565b5b0492506002810190505b600a831061586f576001810190505b80915050919050565b60405180610100016040528060008152602001600073ffffffffffffffffffffffffffffffffffffffff168152602001600060048111156158bc576158bb615f12565b5b815260200160608152602001606081526020016060815260200160008152602001600073ffffffffffffffffffffffffffffffffffffffff1681525090565b6000604051905090565b600080fd5b600080fd5b60007fffffffff0000000000000000000000000000000000000000000000000000000082169050919050565b6159448161590f565b811461594f57600080fd5b50565b6000813590506159618161593b565b92915050565b60006020828403121561597d5761597c615905565b5b600061598b84828501615952565b91505092915050565b60008115159050919050565b6159a981615994565b82525050565b60006020820190506159c460008301846159a0565b92915050565b600081519050919050565b600082825260208201905092915050565b60005b83811015615a045780820151818401526020810190506159e9565b60008484015250505050565b6000601f19601f8301169050919050565b6000615a2c826159ca565b615a3681856159d5565b9350615a468185602086016159e6565b615a4f81615a10565b840191505092915050565b60006020820190508181036000830152615a748184615a21565b905092915050565b6000819050919050565b615a8f81615a7c565b8114615a9a57600080fd5b50565b600081359050615aac81615a86565b92915050565b600060208284031215615ac857615ac7615905565b5b6000615ad684828501615a9d565b91505092915050565b600073ffffffffffffffffffffffffffffffffffffffff82169050919050565b6000615b0a82615adf565b9050919050565b615b1a81615aff565b82525050565b6000602082019050615b356000830184615b11565b92915050565b615b4481615aff565b8114615b4f57600080fd5b50565b600081359050615b6181615b3b565b92915050565b60008060408385031215615b7e57615b7d615905565b5b6000615b8c85828601615b52565b9250506020615b9d85828601615a9d565b9150509250929050565b60058110615bb457600080fd5b50565b600081359050615bc681615ba7565b92915050565b60008060408385031215615be357615be2615905565b5b6000615bf185828601615a9d565b9250506020615c0285828601615bb7565b9150509250929050565b615c1581615a7c565b82525050565b6000602082019050615c306000830184615c0c565b92915050565b600060208284031215615c4c57615c4b615905565b5b6000615c5a84828501615b52565b91505092915050565b600080fd5b600080fd5b7f4e487b7100000000000000000000000000000000000000000000000000000000600052604160045260246000fd5b615ca582615a10565b810181811067ffffffffffffffff82111715615cc457615cc3615c6d565b5b80604052505050565b6000615cd76158fb565b9050615ce38282615c9c565b919050565b600067ffffffffffffffff821115615d0357615d02615c6d565b5b615d0c82615a10565b9050602081019050919050565b82818337600083830152505050565b6000615d3b615d3684615ce8565b615ccd565b905082815260208101848484011115615d5757615d56615c68565b5b615d62848285615d19565b509392505050565b600082601f830112615d7f57615d7e615c63565b5b8135615d8f848260208601615d28565b91505092915050565b600080600060608486031215615db157615db0615905565b5b6000615dbf86828701615a9d565b9350506020615dd086828701615a9d565b925050604084013567ffffffffffffffff811115615df157615df061590a565b5b615dfd86828701615d6a565b9150509250925092565b600080600060608486031215615e2057615e1f615905565b5b6000615e2e86828701615b52565b9350506020615e3f86828701615b52565b9250506040615e5086828701615a9d565b9150509250925092565b60008060408385031215615e7157615e70615905565b5b6000615e7f85828601615a9d565b9250506020615e9085828601615a9d565b9150509250929050565b60008060408385031215615eb157615eb0615905565b5b600083013567ffffffffffffffff811115615ecf57615ece61590a565b5b615edb85828601615d6a565b925050602083013567ffffffffffffffff811115615efc57615efb61590a565b5b615f0885828601615d6a565b9150509250929050565b7f4e487b7100000000000000000000000000000000000000000000000000000000600052602160045260246000fd5b60058110615f5257615f51615f12565b5b50565b6000819050615f6382615f41565b919050565b6000615f7382615f55565b9050919050565b615f8381615f68565b82525050565b6000602082019050615f9e6000830184615f7a565b92915050565b60008060408385031215615fbb57615fba615905565b5b6000615fc985828601615b52565b9250506020615fda85828601615bb7565b9150509250929050565b60008060408385031215615ffb57615ffa615905565b5b600061600985828601615a9d565b925050602061601a85828601615b52565b9150509250929050565b600080fd5b600080fd5b60008083601f84011261604457616043615c63565b5b8235905067ffffffffffffffff81111561606157616060616024565b5b60208301915083600182028301111561607d5761607c616029565b5b9250929050565b6000806000806060858703121561609e5761609d615905565b5b60006160ac87828801615b52565b94505060206160bd87828801615bb7565b935050604085013567ffffffffffffffff8111156160de576160dd61590a565b5b6160ea8782880161602e565b925092505092959194509250565b600081519050919050565b600082825260208201905092915050565b6000819050602082019050919050565b61612d81615aff565b82525050565b61613c81615a7c565b82525050565b61614b81615f68565b82525050565b60a0820160008201516161676000850182616124565b50602082015161617a6020850182616124565b50604082015161618d6040850182616133565b5060608201516161a06060850182616142565b5060808201516161b36080850182616142565b50505050565b60006161c58383616151565b60a08301905092915050565b6000602082019050919050565b60006161e9826160f8565b6161f38185616103565b93506161fe83616114565b8060005b8381101561622f57815161621688826161b9565b9750616221836161d1565b925050600181019050616202565b5085935050505092915050565b6000602082019050818103600083015261625681846161de565b905092915050565b6000819050919050565b6162718161625e565b811461627c57600080fd5b50565b60008135905061628e81616268565b92915050565b6000806000604084860312156162ad576162ac615905565b5b60006162bb8682870161627f565b935050602084013567ffffffffffffffff8111156162dc576162db61590a565b5b6162e88682870161602e565b92509250509250925092565b600082825260208201905092915050565b6000616310826159ca565b61631a81856162f4565b935061632a8185602086016159e6565b61633381615a10565b840191505092915050565b6000610100830160008301516163576000860182616133565b50602083015161636a6020860182616124565b50604083015161637d6040860182616142565b50606083015184820360608601526163958282616305565b915050608083015184820360808601526163af8282616305565b91505060a083015184820360a08601526163c98282616305565b91505060c08301516163de60c0860182616133565b5060e08301516163f160e0860182616124565b508091505092915050565b60006020820190508181036000830152616416818461633e565b905092915050565b61642781615994565b811461643257600080fd5b50565b6000813590506164448161641e565b92915050565b6000806040838503121561646157616460615905565b5b600061646f85828601615b52565b925050602061648085828601616435565b9150509250929050565b600081519050919050565b600082825260208201905092915050565b60006164b18261648a565b6164bb8185616495565b93506164cb8185602086016159e6565b6164d481615a10565b840191505092915050565b600060208201905081810360008301526164f981846164a6565b905092915050565b600061010082019050616517600083018b615c0c565b616524602083018a615b11565b6165316040830189615f7a565b81810360608301526165438188615a21565b905081810360808301526165578187615a21565b905081810360a083015261656b8186615a21565b905061657a60c0830185615c0c565b61658760e0830184615b11565b9998505050505050505050565b600067ffffffffffffffff8211156165af576165ae615c6d565b5b6165b882615a10565b9050602081019050919050565b60006165d86165d384616594565b615ccd565b9050828152602081018484840111156165f4576165f3615c68565b5b6165ff848285615d19565b509392505050565b600082601f83011261661c5761661b615c63565b5b813561662c8482602086016165c5565b91505092915050565b6000806000806080858703121561664f5761664e615905565b5b600061665d87828801615b52565b945050602061666e87828801615b52565b935050604061667f87828801615a9d565b925050606085013567ffffffffffffffff8111156166a05761669f61590a565b5b6166ac87828801616607565b91505092959194509250565b600060a0820190506166cd6000830188615b11565b6166da6020830187615b11565b6166e76040830186615c0c565b6166f46060830185615f7a565b6167016080830184615f7a565b9695505050505050565b6000806040838503121561672257616721615905565b5b600061673085828601615b52565b925050602061674185828601615b52565b9150509250929050565b600081519050919050565b600082825260208201905092915050565b6000819050602082019050919050565b60006167838383616133565b60208301905092915050565b6000602082019050919050565b60006167a78261674b565b6167b18185616756565b93506167bc83616767565b8060005b838110156167ed5781516167d48882616777565b97506167df8361678f565b9250506001810190506167c0565b5085935050505092915050565b60006020820190508181036000830152616814818461679c565b905092915050565b7f4e487b7100000000000000000000000000000000000000000000000000000000600052602260045260246000fd5b6000600282049050600182168061686357607f821691505b6020821081036168765761687561681c565b5b50919050565b7f4f6e6c79206d616e756661637475726572732063616e20706572666f726d207460008201527f68697320616374696f6e00000000000000000000000000000000000000000000602082015250565b60006168d8602a836159d5565b91506168e38261687c565b604082019050919050565b60006020820190508181036000830152616907816168cb565b9050919050565b7f506172656e7420746f6b656e20646f65736e2774206578697374000000000000600082015250565b6000616944601a836159d5565b915061694f8261690e565b602082019050919050565b6000602082019050818103600083015261697381616937565b9050919050565b7f4e6f7420746865206d616e756661637475726572206f6620706172656e74206260008201527f6174636800000000000000000000000000000000000000000000000000000000602082015250565b60006169d66024836159d5565b91506169e18261697a565b604082019050919050565b60006020820190508181036000830152616a05816169c9565b9050919050565b7f496e76616c696420636f756e7400000000000000000000000000000000000000600082015250565b6000616a42600d836159d5565b9150616a4d82616a0c565b602082019050919050565b60006020820190508181036000830152616a7181616a35565b9050919050565b7f4e487b7100000000000000000000000000000000000000000000000000000000600052601160045260246000fd5b6000616ab282615a7c565b91507fffffffffffffffffffffffffffffffffffffffffffffffffffffffffffffffff8203616ae457616ae3616a78565b5b600182019050919050565b600081905092915050565b60008190508160005260206000209050919050565b60008154616b1c8161684b565b616b268186616aef565b94506001821660008114616b415760018114616b5657616b89565b60ff1983168652811515820286019350616b89565b616b5f85616afa565b60005b83811015616b8157815481890152600182019150602081019050616b62565b838801955050505b50505092915050565b7f2d43000000000000000000000000000000000000000000000000000000000000600082015250565b6000616bc8600283616aef565b9150616bd382616b92565b600282019050919050565b6000616be9826159ca565b616bf38185616aef565b9350616c038185602086016159e6565b80840191505092915050565b6000616c1b8285616b0f565b9150616c2682616bbb565b9150616c328284616bde565b91508190509392505050565b60006020601f8301049050919050565b600082821b905092915050565b600060088302616c8b7fffffffffffffffffffffffffffffffffffffffffffffffffffffffffffffffff82616c4e565b616c958683616c4e565b95508019841693508086168417925050509392505050565b6000819050919050565b6000616cd2616ccd616cc884615a7c565b616cad565b615a7c565b9050919050565b6000819050919050565b616cec83616cb7565b616d00616cf882616cd9565b848454616c5b565b825550505050565b600090565b616d15616d08565b616d20818484616ce3565b505050565b5b81811015616d4457616d39600082616d0d565b600181019050616d26565b5050565b601f821115616d8957616d5a81616afa565b616d6384616c3e565b81016020851015616d72578190505b616d86616d7e85616c3e565b830182616d25565b50505b505050565b600082821c905092915050565b6000616dac60001984600802616d8e565b1980831691505092915050565b6000616dc58383616d9b565b9150826002028217905092915050565b616dde826159ca565b67ffffffffffffffff811115616df757616df6615c6d565b5b616e01825461684b565b616e0c828285616d48565b600060209050601f831160018114616e3f5760008415616e2d578287015190505b616e378582616db9565b865550616e9f565b601f198416616e4d86616afa565b60005b82811015616e7557848901518255600182019150602085019450602081019050616e50565b86831015616e925784890151616e8e601f891682616d9b565b8355505b6001600288020188555050505b505050505050565b6000606082019050616ebc6000830186615b11565b616ec96020830185615c0c565b616ed66040830184615b11565b949350505050565b7f546f6b656e20646f65736e277420657869737400000000000000000000000000600082015250565b6000616f146013836159d5565b9150616f1f82616ede565b602082019050919050565b60006020820190508181036000830152616f4381616f07565b9050919050565b7f4e6f7420746865206f776e657200000000000000000000000000000000000000600082015250565b6000616f80600d836159d5565b9150616f8b82616f4a565b602082019050919050565b60006020820190508181036000830152616faf81616f73565b9050919050565b7f496e76616c6964207472616e7366657200000000000000000000000000000000600082015250565b6000616fec6010836159d5565b9150616ff782616fb6565b602082019050919050565b6000602082019050818103600083015261701b81616fdf565b9050919050565b7f426174636820666c616767656420636f756e7465726665697400000000000000600082015250565b60006170586019836159d5565b915061706382617022565b602082019050919050565b600060208201905081810360008301526170878161704b565b9050919050565b7f5363616e207265717569726564206265666f7265207472616e73666572000000600082015250565b60006170c4601d836159d5565b91506170cf8261708e565b602082019050919050565b600060208201905081810360008301526170f3816170b7565b9050919050565b7f4368696c6420746f6b656e20646f65736e277420657869737400000000000000600082015250565b60006171306019836159d5565b915061713b826170fa565b602082019050919050565b6000602082019050818103600083015261715f81617123565b9050919050565b7f4e6f7420746865206d616e756661637475726572206f66206368696c6420626160008201527f7463680000000000000000000000000000000000000000000000000000000000602082015250565b60006171c26023836159d5565b91506171cd82617166565b604082019050919050565b600060208201905081810360008301526171f1816171b5565b9050919050565b600082905092915050565b60008190508160005260206000209050919050565b601f8211156172595761722a81617203565b61723384616c3e565b81016020851015617242578190505b61725661724e85616c3e565b830182616d25565b50505b505050565b61726883836171f8565b67ffffffffffffffff81111561728157617280615c6d565b5b61728b825461684b565b617296828285617218565b6000601f8311600181146172c557600084156172b3578287013590505b6172bd8582616db9565b865550617325565b601f1984166172d386617203565b60005b828110156172fb578489013582556001820191506020850194506020810190506172d6565b868310156173185784890135617314601f891682616d9b565b8355505b6001600288020188555050505b50505050505050565b600061733a8385616495565b9350617347838584615d19565b61735083615a10565b840190509392505050565b60006040820190506173706000830186615f7a565b818103602083015261738381848661732e565b9050949350505050565b7f19457468657265756d205369676e6564204d6573736167653a0a333200000000600082015250565b60006173c3601c83616aef565b91506173ce8261738d565b601c82019050919050565b6000819050919050565b6173f46173ef8261625e565b6173d9565b82525050565b6000617405826173b6565b915061741182846173e3565b60208201915081905092915050565b7f4e6f7420746865206f776e6572206f6620706172656e74000000000000000000600082015250565b60006174566017836159d5565b915061746182617420565b602082019050919050565b6000602082019050818103600083015261748581617449565b9050919050565b7f4e487b7100000000000000000000000000000000000000000000000000000000600052603260045260246000fd5b7f5363616e206e6f7420616c6c6f77656420666f7220726f6c6500000000000000600082015250565b60006174f16019836159d5565b91506174fc826174bb565b602082019050919050565b60006020820190508181036000830152617520816174e4565b9050919050565b7f5363616e2062792077726f6e6720726f6c650000000000000000000000000000600082015250565b600061755d6012836159d5565b915061756882617527565b602082019050919050565b6000602082019050818103600083015261758c81617550565b9050919050565b7f416c7265616479207363616e6e656420666f72207468697320726f6c65000000600082015250565b60006175c9601d836159d5565b91506175d482617593565b602082019050919050565b600060208201905081810360008301526175f8816175bc565b9050919050565b600061760b8285616bde565b91506176178284616bde565b91508190509392505050565b7f556e617574686f72697a65642076657269666965720000000000000000000000600082015250565b60006176596015836159d5565b915061766482617623565b602082019050919050565b600060208201905081810360008301526176888161764c565b9050919050565b7f4e487b7100000000000000000000000000000000000000000000000000000000600052601260045260246000fd5b60006176c982615a7c565b91506176d483615a7c565b9250826176e4576176e361768f565b5b828204905092915050565b60006176fa82615a7c565b915061770583615a7c565b925082820390508181111561771d5761771c616a78565b5b92915050565b600061772e82615a7c565b915061773983615a7c565b9250826177495761774861768f565b5b828206905092915050565b600061775f82615a7c565b915061776a83615a7c565b925082820190508082111561778257617781616a78565b5b92915050565b600060808201905061779d6000830187615b11565b6177aa6020830186615b11565b6177b76040830185615c0c565b81810360608301526177c981846164a6565b905095945050505050565b6000815190506177e38161593b565b92915050565b6000602082840312156177ff576177fe615905565b5b600061780d848285016177d4565b91505092915050565b600060408201905061782b6000830185615b11565b6178386020830184615c0c565b9392505050565b6178488161625e565b82525050565b6000602082019050617863600083018461783f565b92915050565b600060ff82169050919050565b61787f81617869565b82525050565b600060808201905061789a600083018761783f565b6178a76020830186617876565b6178b4604083018561783f565b6178c1606083018461783f565b9594505050505056fea2646970667358221220150293d2ffe07ef58feb1ab26407e864cb6bbc240948ea4501323344494ea4cf64736f6c634300081c0033",
  "linkReferences": {},
  "deployedLinkReferences": {}
}